:020000041000EA
:10000000002000082B0100100D0000008D010010E1
:1000100000000000000000000000000000000000E0
:100020000000000000000000000000008901001036
:10003000000000000000000089010010890100108C
:100040008901001089010010890100108901001048
:100050008901001089010010890100108901001038
:100060008901001089010010890100108901001028
:100070008901001089010010890100108901001018
:100080008901001089010010890100108901001008
:1000900089010010890100108901001089010010F8
:1000A00089010010890100108901001089010010E8
:1000B00089010010890100108901001089010010D8
:1000C00010B5064C2378002B07D1054B002B02D02E
:1000D000044800E000BF0123237010BDF8030008AE
:1000E00000000000DC150010044B10B5002B03D0FD
:1000F0000349044800E000BF10BDC04600000000F6
:10010000FC030008DC1500100230800803D0013029
:100110000238FCD1C046C0467047EFF3108072B67B
:10012000704780F3108870477047FFF7FDFF72B685
:100130000F4C104DAC4209DA21686268A368043B99
:1001400002DBC858D050FAE70C34F3E70A490B4AEF
:100150000020521A02DD043A8850FCDC08480949A4
:100160000860BFF34F8F00F03FFF00F0EFFEFEE7A7
:10017000E815001000160010F80300081406000827
:100180000000000808ED00E0FEE7FEE700B50420EF
:100190007146084202D0EFF3098001E0EFF30880D6
:1001A000043000F0D3FCFEE7014B18607047C046F6
:1001B00010060008044B1B681A00BA3212881B6A2A
:1001C0005043C0187047C046100600081D4B9842A7
:1001D0000FD010D840282FD005D8002830D01028B4
:1001E00028D019481EE0802828D080235B00984240
:1001F000F7D1144816E0154B984214D008D8A02324
:100200001B0698421CD0124B9842EAD1A0200BE06A
:10021000104B98420AD0104B984209D00F4B98428D
:10022000DFD10F487047A420C003FBE70D48F9E772
:100230000D48F7E70D48F5E70D48F3E70D48F1E7FE
:100240000020EFE706005200FF005200010000F01E
:10025000090000A0040000F0050000F0030000F019
:100260000100520002005200030052000100500041
:10027000020050000500520010B50020FFF79AFF61
:100280000A4B1C682300BC331B68C0180368002B92
:100290000ADB074B1868FFF799FF012263689A6031
:1002A0009A68002AFCD110BD0248FCE7100600083D
:1002B00014040008020050000D4B10B5186000280F
:1002C00004D0FE235B42038000234380094B1B685C
:1002D0001A0050321278002A08D051331B78002BB4
:1002E00004D002220449002000F0E0F810BDC0460E
:1002F00024040008100600084501000810B5024853
:10030000FFF7DAFF10BDC046B8030008064B1B68B4
:10031000BC331B68C3181B68002B03DA89B2416029
:10032000002070470148FCE71006000801008A0021
:100330000368002B04DA89B2C26081600020704734
:100340000048FCE701008A00064B1B68BC331B68B1
:10035000C3181B68002B03DAC36800200B607047CA
:100360000148FCE71006000801008A00024B1A68E9
:10037000002A00D11860704728040008F0B52C242A
:100380006043154C1F0024681D0A2018FF242540D7
:100390002740124C1B0C26680760346A4560836056
:1003A000BA36368877433F1907612F0080376D01D1
:1003B0007F01E71964190A4D47611F043B43641923
:1003C000236000238361059BC2610162002B01D081
:1003D0001B888381F0BDC046280400081006000871
:1003E00008100000F0B5836885B002AD2B80154B76
:1003F00002681B68066A1B8F476A9B18AB704368CC
:100400000095826AC16A040003930369C068FFF71C
:10041000B5FF00213B000A0000913000FFF7AEFF5E
:10042000216B280000F046FB0022AB5E002B06DBB0
:100430001F2213401E3A9A401300034A136005B06E
:10044000F0BDC0461006000800E100E0F7B52C251D
:10045000134C684326686943341825690193711861
:10046000002D19D08869002818D12E68002E15DAC1
:100470006768012426004B689E40B44613689EB20C
:1004800063461B041E431660EA608C61BC40019BFE
:10049000A4B24B62AC60FEBD0248FCE70248FAE73A
:1004A0002804000804028A0007028A002C23434320
:1004B00006480068C018C369934204D9036A002043
:1004C0009200D15070470248FCE7C046280400085B
:1004D0000A028A0073B5002642690400D5680196B5
:1004E0002B0CB34221D01B0413601368194B006915
:1004F0001B68BC331B68C3181B68B34215DA01A91B
:10050000FFF722FFB0420CD10198E26903681E0C8C
:10051000DBB29A4205D9226A9B009B58002B00D07F
:10052000984731002069FFF7F1FEADB2002D09D0E8
:1005300063691D6000251B68636AAB4205D098475C
:100540006562A56163691B6873BDA36A002BF8D05F
:100550009847F6E7100600082C2310B54343034ADA
:100560001068C018FFF7B6FF10BDC0462804000889
:10057000F8B5194B0F001B681A003332127882420B
:1005800027D9002925D01F250A68154021D1190037
:10059000BA310C88114E60431C6AD2080419290034
:1005A0007868346000F084FF29002000FFF7AEFE79
:1005B0003A0029003068FFF7BBFE041E07D1010096
:1005C0003068FFF7A3FE03002000002B00D0044892
:1005D000F8BD0448FCE7C046100600082C040008DB
:1005E00001018A0003018A0010B5002A0DD10029FB
:1005F00014D10B4B1A681300BA331B885843136A83
:10060000C018084B1860080010BD002906D0064B22
:10061000196019005A60FFF7ABFFF5E70348F3E7ED
:10062000100600082C040008BC03000803018A001F
:10063000F7B5184F04003B680191DE6833688342C8
:1006400026D90025A94202D1FFF767FD05003868C9
:100650000368002B1ADA1F22012322409340640909
:100660007268A4001419226813420DD09A432260C4
:1006700000240021FFF74AFE019B002B02D1280035
:10068000FFF74FFD2000FEBD034CF2E7034CF3E7FC
:10069000034CF7E72C0400080201880003018800DE
:1006A00004018A000A4B1B68DB681A6882420DD974
:1006B00059681F23420918401E3B8340920050583E
:1006C0001840431E9841034BC01870470248FCE78E
:1006D0002C0400080001880004018A00054B1B68F7
:1006E0001A0088321B6812689B181868000AC0B28A
:1006F0007047C04610060008044B1B681A00883279
:100700001B6812689B181868000E704710060008D6
:10071000024B18694007C00F7047C04600002740D1
:10072000A6220549D2008B580220DB439B0702D04A
:1007300001238858184070470000264010B5FFF785
:10074000EFFF0023022801D1014B1B68180010BDE8
:1007500034040008094A83009B18D022920098585C
:1007600007221040042807D1C022920098581F2366
:1007700003408020400018437047C04600002640D8
:1007800010B5FFF7E7FF03281CD005D8012816D0C5
:1007900023D9FFF7D3FF10BD1223FF33984213D0A4
:1007A0001423FF33984215D0033B984210D10C4AD2
:1007B0000C4BD358002B0BDA80200002EBE70A4BDE
:1007C0001868E8E7094BFBE7FFF7A2FF0028F3D121
:1007D0000020E0E7024A064BEBE70648DBE7C046AD
:1007E000000026400C050000300400088C040008BE
:1007F0003C05000000127A00B023154ADB00D358F4
:1008000010B59903DB01DB0F890BC371114B01603C
:10081000D3580F24D904DB01DB0D0381B123DB00A6
:10082000D358C90C818019002140817219092140D7
:10083000C172D9029B009B0F8373074BC90CD3581D
:1008400081815A05DB01520FDB0D8271038210BDDD
:1008500000002640840500008C05000010B5104BF8
:10086000421E1B683F331B78934216D97F221F24F8
:100870008030FF300B4B8000C3581A400A701A0CAE
:100880002240180A8A701A012040E2404870002075
:100890009B009B0FCA700B7110BD0348FCE7C0465C
:1008A000100600080000264001004A00F0B589B09B
:1008B00003AC14220021200000F0FAFD2000FFF715
:1008C0009BFFB0231A4ADB00D25800239A4203DA76
:1008D000A37B023B5A1E9341E57900266A1E95418F
:1008E0000135B34221D0A488B4421ED0039B30000E
:1008F0000193FFF745FF2A00330007003100200075
:1009000000F0C0FC0C0005003300019A31003800F3
:1009100000F0B8FCE6076A083243630880185941C2
:100920002A00230000F08EFC0600300009B0F0BD64
:1009300000002640F0B50026244B85B01B68070058
:100940003F331B78B3423ED0B0423CD083423AD3CF
:100950000522310002A800F0ABFD02A93800FFF724
:100960007DFF3B008033FF33194A9B009B58B34205
:1009700029DA02AB1B79022B25D002AB5C78B4429A
:1009800021D09D78B5421ED01B7838000193FFF727
:10099000F7FE2A00330007003100200000F072FC4F
:1009A0000C0005003300019A3100380000F06AFCA9
:1009B000E6076A0832436308801859412A00230079
:1009C00000F040FC0600300005B0F0BD1006000845
:1009D0000000264010B5041E04D1FFF767FF002871
:1009E00006D008E0064B1B683F331B78834203D2D6
:1009F0002000FFF7C5FE10BDFFF79CFFEFE7C046E4
:100A000010060008E02210B50124094B8000920076
:100A1000C018835880589B069B0F9C400F2318409A
:100A2000FFF7D8FF63081818210000F07FFB10BD06
:100A300000002640144B30B51A68072413002C33ED
:100A40001B781F2B15D883081D00A5432C1E0FD122
:100A500003342040A040814012689B002032D3180C
:100A60000A00FF2181401C6862401140614019600A
:100A700030BD802320401B06184380239B01126851
:100A8000C91889008850F3E710060008064B9A68D9
:100A90000300064810339B00824202D198589950B7
:100AA0007047034AD058FBE700ED00E00000000863
:100AB00000000010F8B506000D0000283AD0002311
:100AC000C05E002828DBB178FFF7B4FF0024FF22C6
:100AD000032794460023F05E716883B21F40FF0035
:100AE0006646BA4089013140D243B940002815DB3F
:100AF000114E83089B009B19C026B6009F593A40AF
:100B0000114399510D4B9A680D4B9A4202D129001D
:100B1000FFF7BCFF2000F8BD0A4CD8E70F26334092
:100B2000083B064E9B089B009B19DE69324011432F
:100B3000D961E7E7034CEDE700E100E000ED00E0FC
:100B40000000000801005600FEE7000002680A4BA2
:100B500010B51A6042685A6082689A60C268DA60AA
:100B600002691A6142695A6182699A61C269DA61ED
:100B7000FFF7EAFF10BDC046D8030008B0235B05AD
:100B80005A782120002A01D05878C0B27047B0238B
:100B90005B059A89002A02D0988980B2704780202C
:100BA0004000FBE77FB5274B86000D00F458042971
:100BB00001D0012927D100200FE0A3682B420BD1DF
:100BC000E36829001A685B6802920193039302A804
:100BD000236898471C4B1C606469002C0BD01B4B8E
:100BE0009842EAD1012DE8D1174B18481A68184BE2
:100BF0009A5104B070BD012DFBD1144B9842F3D033
:100C0000134B9C51F5E7022906D10F4B1B68181EA8
:100C1000EFD01C6903E01C006369002BFBD10020AE
:100C2000002CE6D0A3682B4209D1E36829001A689A
:100C30005B6802920193039302A823689847246992
:100C4000EEE7C0467804000874040008FF00420084
:100C5000600400081A4B1B68190088311A6809687B
:100C600051180968016219008C310968521812681C
:100C700042621A0046321278002A1FD09A68E03287
:100C80001268D2061AD5F222DB68D2019A580260A5
:100C9000F022D2019A5842600A4A9A5882600A4A5F
:100CA0009A58C260094A9A580261094A9A584261A0
:100CB000084A9A588261084A9B58C3617047C046E7
:100CC0001006000804780000087800000C78000086
:100CD0001078000014780000187800001A4B1B6888
:100CE0001A008832196812688A18016A11601A009D
:100CF0008C32196812688A18416A11601A004632EB
:100D00001278002A1ED09A68E0321268D20619D5ED
:100D1000F0224168DB68D201995081680B4A9950F2
:100D2000C1680B4A995001690A4A995041690A4AB7
:100D300099508169094A9950C169094A99500168D5
:100D4000E83299507047C046100600080478000049
:100D5000087800000C78000010780000147800007B
:100D600018780000F7B50700FFF708FF664D06008A
:100D70006B68002B00D07DE0FFF7CFF96B68009027
:100D8000002B00D089E0614C22681300BA33198827
:100D900007234B43126A9B181A68002AFCDADB68A7
:100DA000DA0021D51B0F1B0759480193FFF752FFAB
:100DB0005849212E00D075E0226890201300883316
:100DC0001C68136800011C1923680B40034323604F
:100DD00013008C3312681B68D3181A68114008433B
:100DE00018604B4B019A13438022484E920531689C
:100DF00013430A00BA321088072200244243096ACA
:100E00005218D36054605368FFF7C1FE80235B0023
:100E100098425DD1380000F05FFB32681300BA33AE
:100E2000198807234B43126A9B181A68002AFCDAB8
:100E3000DF68FB0003D538010009FFF74FFF364B91
:100E400032681F401300BA33198807234B43126AD4
:100E500000989B180022DF605A60FFF762F9002CAF
:100E60000FD16B68002B03D008210120FFF79AFEF9
:100E70002000FEBD01210800FFF794FE041E00D1F2
:100E80007AE76B68002B03D002210120FFF78AFE6E
:100E9000224B9C42ECD0224CEAE704210120FFF7D0
:100EA00081FE70E720688022030088331C68036895
:100EB00052001C1923680B401343236003008C333A
:100EC00000681B68C318186801400A431A6088E765
:100ED00033681A00BC32196A126852181168002966
:100EE00010DBBA331B889A181368002B0ADB042323
:100EF0000C4A11690B431361012F01D030BF8CE7FD
:100F000020BF8AE7054C88E778040008100600082F
:100F100038040008FF00FFFFFFFFFFDF050042006D
:100F2000FF00420000ED00E0C02280200649520090
:100F30008B58C0059B009B0803438B508023885827
:100F40001B0603438B5070470000264010B562B665
:100F5000034800F0C1F80020FFF704FFFBE7C0469C
:100F60000020001010B50020FFF7F6FA10BD704702
:100F700010B50020FFF746FD041E25D0134B186066
:100F8000FFF7BAFB411C200000F0D0F8104B040022
:100F90001860FFF7A3FB411C200000F0C7F80D4BC1
:100FA000441E18600C49200000F0C0F8FA210B4BD9
:100FB000013018708900200000F0B8F8084B0130AB
:100FC0001860084BC003186010BDC046C40000087C
:100FD000C8000008C000000840420F00D40000080C
:100FE000D0000008CC00000810B52148FFF7DCF85D
:100FF000B022E02130201F4CD200A35889005B00B2
:101000005B08A35063588343635080235B04A35061
:10101000194B1A4AE250A02204339201E250FF22F7
:10102000174BE250FFF780FFC02201215200A35866
:101030008B43A350FFF79BFFFFF79AFF114B032051
:101040001A681300BA33198807234B43126A8021A8
:101050009B180022DA605A600B4AFFF7C5FA0B486A
:10106000FFF784F90A48FFF7BDF9FFF747F910BD0C
:10107000E814001000002640840500000100020072
:101080008C05000010060008C40300089004000846
:10109000A8150010024BD86F032318407047C046B4
:1010A0000400214010B5FFF738F80749074ACB6F15
:1010B0001A40074B1343CB67102306490A681A42AC
:1010C000FCD0FFF72EF810BD04002140FCFF00000B
:1010D0000100FA058800214070B50F4C0600FFF7AB
:1010E0001CF8E36F0500DB439B0701D1FFF7DAFF34
:1010F000B0230A4A9B00D650E36F094A09491A40B7
:10110000094B1343E36710230A681A42FCD02800F6
:10111000FFF707F870BDC0460400214000002140E1
:10112000FCFF0000880021400300FA05002243086C
:101130008B4274D303098B425FD3030A8B4244D39F
:10114000030B8B4228D3030C8B420DD3FF220902E1
:1011500012BA030C8B4202D31212090265D0030BA0
:101160008B4219D300E0090AC30B8B4201D3CB0396
:10117000C01A5241830B8B4201D38B03C01A5241D8
:10118000430B8B4201D34B03C01A5241030B8B42DA
:1011900001D30B03C01A5241C30A8B4201D3CB02C5
:1011A000C01A5241830A8B4201D38B02C01A5241AA
:1011B000430A8B4201D34B02C01A5241030A8B42AD
:1011C00001D30B02C01A5241CDD2C3098B4201D3C5
:1011D000CB01C01A524183098B4201D38B01C01A43
:1011E000524143098B4201D34B01C01A52410309BA
:1011F0008B4201D30B01C01A5241C3088B4201D369
:10120000CB00C01A524183088B4201D38B00C01A15
:10121000524143088B4201D34B00C01A5241411A3C
:1012200000D20146524110467047FFE701B5002049
:1012300000F006F802BDC0460029F7D076E77047F7
:101240007047C046002B11D1002A0FD1002900D1D0
:10125000002802D00021C943081C07B4024802A19B
:101260004018029003BDC046D9FFFFFF03B4684693
:1012700001B5029800F030F8019B9E4602B00CBC0C
:101280007047C046F0B5CE46474615042D0C2E00DB
:1012900080B50704140C3F0C9946030C7E435D4354
:1012A000674363437F19340CE4199C46A54203D974
:1012B00080235B029846C4444B4643435143250C6C
:1012C00036046544360C2404A4195B19591820000F
:1012D0000CBC90469946F0BDF0B54F464646D64602
:1012E000C0B5040082B00D00914698468B422FD8BD
:1012F0002CD04146484600F0CFF8290006002000D7
:1013000000F0CAF8331A9C46203B9A4600D576E096
:101310004B46524693401F004B46624693401E0088
:10132000AF4228D825D05346A41BBD41002B00DA7C
:101330007BE0002200230092019301235246934058
:101340000193012362469340009318E08242D0D972
:1013500000220023009201930A9B002B01D01C6005
:101360005D600098019902B01CBC90469946A24667
:10137000F0BDA342D7D90022002300920193634617
:10138000002BE9D0FB079846414672080A437B08C8
:1013900066460EE0AB4201D1A2420CD8A41A9D4190
:1013A000012024196D410021013E24184D41002ED9
:1013B00006D0AB42EED9013E24196D41002EF8D182
:1013C00000980199534600196941002B23DB2B003B
:1013D0005246D3402A006446E2401C0053461500A2
:1013E000002B2DDB26005746BE4033002600674603
:1013F000BE403200801A994100900191ACE76246EC
:1014000020239B1A4A46DA406146130042468A402E
:1014100017001F4380E7624620239B1A2A00664676
:101420009A402300F3401343D4E76246202300216F
:101430009B1A0022009101920122DA40019280E77A
:101440002023624626009B1ADE402F00B0466646E7
:10145000B74046463B003343C8E7C0461C21012342
:101460001B04984201D3000C10391B0A984201D387
:10147000000A08391B09984201D30009043902A265
:10148000105C40187047C0460403020201010101CC
:10149000000000000000000010B5002903D1FFF794
:1014A000DDFF203002E0081CFFF7D8FF10BDC0466A
:1014B00003001218934200D1704719700133F9E705
:1014C000F8B5C046F8BC08BC9E467047F8B5C046A3
:1014D000F8BC08BC9E46704701B40248844601BC73
:1014E000604700BFA1020008000021400000254025
:1014F0000000014000003440000024400000314062
:101500000000324000001F41000023400000114055
:1015100000001D411010101010101010101010803D
:1015200019005500F000050105013B04101C0101E4
:101530000FC000000004000001010101011D3A5725
:10154000789600000000000820001012080000003B
:10155000001F00000010000F002000023F06080ED0
:1015600000080009000A000B24282C303400000079
:10157000100000009000000088000000080000003B
:101580008000000004F0000000F0000040020000B5
:101590002005A000D00100018001A00140019001C0
:1015A000B001200010000000030000000100000056
:1015B00001000000000000000503600004000000BE
:1015C00001000000000000000100000006046000AF
:1015D00008000000F0050008650F00100000000082
:1015E000F8FCFF7F01000000000000100000000870
:1015F000C000000008160010C0000008F80200003B
:10160000F80300081C02000000093D0000127A00E7
:1016100000093D000000D007A00F000004000000FA
:10162000E9000010C100001080B230B5C00020D029
:10163000104B07221C682300BA331B885A43236AC5
:10164000D31819680029FCDA3E210B4B06251960D6
:101650000A4B0B491960A3210A4BC9005D500A4986
:1016600058505858206A1218002050605A58002AC2
:10167000FCDA30BD100600080401264008012640AF
:101680001E1F0000000026401C05000010B5437816
:10169000FF2B11D100F0FCF80400032000F020F92A
:1016A000C3685A680123116819431160116819420F
:1016B000FCD1200000F004F910BDF7B50090002027
:1016C000019100F00DF93F4D06002B681A005033D0
:1016D000BC3214681B780419002B5AD000F0C8F8EB
:1016E000070003281BD000F0D3F8374A374B05001A
:1016F000D358002B3EDA364A0121300000F0E8F8DA
:10170000002837D10198FFF78FFF009B002B3ED0B8
:101710002368002BFCDB00F0CBF804002BE0062054
:1017200000F0DEF82B68BC331B68C0180368002B80
:1017300002DA284C2000FEBD002000F0D9F8264B2C
:101740009842F6D00023254A19001268012000F0C3
:1017500097F80025A842ECD1002000F0C9F81E4AF5
:101760001F4B904203D09D42E3D00135F4E79D42E8
:10177000B9D1DEE7174C032F05D10121002000F07D
:101780008FF80028F9D1280000F09AF8D2E7154C1C
:10179000F1E700F07DF80E4A05000121300000F06D
:1017A00097F8002809D1009B002B08D02368002B54
:1017B000FCDB00F07DF80400E5E7064CE3E7094CAC
:1017C000E1E7C04610060008000026401C050000A6
:1017D00014040008050052000101880024040008D8
:1017E000F049020001005000184BF7B51B68184A79
:1017F0005C68042311690B431361012824D030BFB6
:101800002300FC331B69002B1DD1A320114B12496F
:10181000124AC0000F681E5815680195104D0D60E2
:1018200006251D503E2010600E483E351D501D58A7
:10183000002DFCDA0C48FC3420610F60A321C900A4
:101840005E50019B1360F7BD20BFD9E7100600086A
:1018500000ED00E00000264008012640040126407B
:101860001E1F00001C050000AAAAAAAA0000000072
:1018700001B40248844601BC604700BF95100010C7
:1018800001B40248844601BC604700BF4D0400100B
:1018900001B40248844601BC604700BF1B01001030
:1018A00001B40248844601BC604700BF3106001005
:1018B00001B40248844601BC604700BF79020010B1
:1018C00001B40248844601BC604700BF23010010F8
:1018D00001B40248844601BC604700BF31030010D8
:1018E00001B40248844601BC604700BFB501001046
:1018F00001B40248844601BC604700BFA506001041
:1019000000000000000000000000000000000000D7
:0C191000000000000000000000000000CB
:1020000000780408D12200100D00000045230010C4
:102010004523001045230010452300100000000058
:10202000000000000000000000000000412300103C
:102030004123001000000000412300104123001044
:1020400041230010412300104123001041230010C0
:1020500041230010412300104123001041230010B0
:1020600041230010412300104123001041230010A0
:102070004123001041230010412300104123001090
:1022800041230010412300104123001010B5054CDC
:10229000237833B9044B13B10448AFF30080012312
:1022A000237010BDF4270008000000003C9D0010C2
:1022B00008B5034B1BB103490348AFF3008008BDC9
:1022C00000000000F82700083C9D00107047704790
:1022D000FFF7FCFF72B6144C144DAC4209DA2168CA
:1022E0006268A368043BA2BFC858D050FAE70C3418
:1022F000F3E70F490F4A00209142BCBF41F8040B9D
:10230000FAE70D480D490860BFF34F8F00F0D0F990
:1023100000F0B2F9FFF7DBFF05F052FF00F03CFAE6
:1023200005F03AFFFEE70000489D0010609D001098
:10233000F4270008782C00080020000808ED00E0D1
:10234000FEE7FEE700B504207146084202D0EFF335
:10235000098001E0EFF30880043004F0E7FFFEE7B6
:1023600008B500F047F800F003F800F009F808BDE0
:1023700008B5024800F0ECFD08BD00BF7C8D0010E0
:1023800010B5124C124A0021204602F013FF1148EA
:1023900000F0DEFD104A0121204602F00BFF0F483D
:1023A00000F0D6FD04F540740D4A0621204602F0E7
:1023B00001FF0C4800F0CCFD0B4A0721204602F03B
:1023C000F9FE0A4800F0C4FD10BD00BF0000324015
:1023D000F08D0010248E0010288E00105C8E0010EE
:1023E000B88D0010EC8D0010808D0010B48D0010A1
:1023F000FEE7000030B583B09621002004F0E8FF2E
:1024000004F078FFC0B96F4BD3F8004F04F03F04DD
:1024100004F060FF30B1012004F052FF6A4B9B6C66
:10242000002B24DB674BC3F8004F04F07BF904F06A
:102430006FF9012004F08AF9012005F0D9FA05F0BE
:102440007FFA05F059FB05F043FB0021084604F034
:1024500003F9002004F06EF8012004F053F8002086
:1024600004F016F8594B1B6893F83F4006E006202D
:10247000FFF7BEFF204604F08DFB013C002CF9D194
:102480000021012004F096F9002004F0D3F8002880
:102490007CD004F043FA0021084604F08BF90021B7
:1024A000084604F0A7F802F07BFC494D0024009494
:1024B000234622462146284602F090FD00942346FA
:1024C00022460121284602F089FD424804F0FEF828
:1024D000002867D1012004F005F8002004F02AF854
:1024E000002004F00FF8002003F0D2FF00210120AB
:1024F00004F060F90021084604F05CF90021022094
:1025000004F058F90021032004F054F900210420BC
:1025100004F050F9304804F01BFA002845D12F4848
:1025200004F0C6FA002843D10021084604F062F8FE
:102530000021084604F090F82949012004F050FBDE
:10254000C8BB42F21071012004F0D8FBB0BB0020E0
:1025500003F0B8FF04F0DCF8012004F0F7F8642180
:10256000002004F035FF00F04DF81E4800F0F0FCAC
:102570001D4800F0EDFC1D4800F0EAFC1C4800F08E
:10258000E7FC1C4800F0E4FC03B030BD04F040F967
:1025900040F2111398427FF47CAF0121002004F037
:1025A00029F876E70520FFF723FF0420FFF720FF37
:1025B0000420FFF71DFF0320FFF71AFF0320FFF79A
:1025C00017FF00BF00F0274000002740642B0008E1
:1025D0000000324040420F00608E0010400D0300AA
:1025E000888E0010748E0010788E00107C8E001083
:1025F000808E0010848E001008B5012003F02CF8A6
:1026000008BD704710B5002004F082FD00B910BD70
:102610000446114B186003F083FF0130B4FBF0F067
:102620000E4B186003F094FF0130B4FBF0F40C4B38
:102630001C60013C0B4BA3FB04239B0C01330A4A97
:1026400013700A4BA3FB04239B090133084A136050
:10265000DB03084A1360DAE790220008942200089E
:102660008C22000883DE1B43A0220008D34D621099
:102670009C2200089822000808B50A4802F08AFB4C
:10268000FFF7BFFFFFF7BEFF00221146032003F054
:1026900039F8054802F078FE044802F0CDFE02F059
:1026A0005DFC08BD049C001014280008908E0010EA
:1026B00008B500F0FEF8074AD2F8883043F47003FA
:1026C000C2F88830BFF34F8FBFF36F8F00F0F5F87B
:1026D00008BD00BF00ED00E008B5044804F0FAFFB3
:1026E00008B1002008BD0248FCE700BFA422000892
:1026F0000000020610B500F029FC044628B144B1E0
:10270000FFF72EFE5CB1204610BD01F023FA04460F
:10271000F5E740F6E441002001F064FAF0E7FFF746
:10272000DBFF0446EFE70000014B01221A707047FF
:10273000D029000830B587B0144B0FCB06AC04E9A4
:102740000F000022FF21124801F060FD00B101BE20
:102750000F4C02A9204601F0B3FD42F21071204651
:1027600001F0C0FC04F1080500220A49284601F0E6
:1027700037FB0122009207232946606801F074FBB1
:10278000204601F06DFD07B030BD00BF5C90001029
:102790009C2900082927001008B5FFF7ABFF00B1FE
:1027A00001BE62B64FF4E1322821292005F0FCFA7F
:1027B00000B101BE012306221946332000F0EAFAD7
:1027C00000B101BE264805F0A3FD264805F0A0FD96
:1027D000254805F09DFD254805F09AFDFFF7AAFF65
:1027E000234805F095FD10E0224B1B7803B32248E7
:1027F00001F04EFD214805F08BFD1E4A137883F051
:10280000010313701E4B1B78EBB901221D491E48B2
:1028100002F0E2F80028F5D11A4B1B78422B0ED0BB
:10282000542BE1D0412BEDD1184805F071FDE9E7BB
:10283000114801F015FD164805F06AFDDDE7154861
:1028400005F066FDDEE70E4B00221A70124B1B6886
:102850009869032100F5407002F030FCD5E700BF15
:10286000C48E0010108F0010248F00106C8F001089
:10287000B48F0010C02200089C290008F48F0010BB
:10288000D0290008D1290008BC2B00082490001092
:102890000C90001040900010642B00080000000015
:1028A0000230800803D001300238FCD100BF00BFE5
:1028B0007047EFF3108072B6704780F3108870474E
:1028C00001BE0148704700BF02020204024B0B60C8
:1028D00007231360002070470023000808B54078E4
:1028E00004F016FC08BD000038B5054614468A42BF
:1028F00094BF00230123834209D080F001038A4260
:102900002CBF002101218B4201D04DB138BD05F013
:1029100011F80549A1FB0431890C04F059FDF4E7D5
:10292000FFF770FEF2E700BF83DE1B432DE9F041A5
:1029300004460A78A2F10D03DBB2012B04D90F2A59
:102940002FD14E78013600E04E78002003F0A4FE2F
:102950000746002003F06EFE04F0BAFB20FA07F8E9
:10296000304604F0B5FB20FA07F763786BB1F1B29B
:10297000607803F03FFE054663789BB958B93A4644
:1029800041460020FFF7B0FF0CE03A4641460120E7
:10299000FFF7AAFFEBE7424639460020FFF7A4FF06
:1029A00000E0024D2846BDE8F08100BF01020204AC
:1029B000F8B505460139072935D8DFE801F00426C6
:1029C000340634343424002600E00226002003F0CC
:1029D00063FE0746002003F02DFE04F079FB20FA89
:1029E00007F720FA06F46B788BB13146687803F06C
:1029F00033FE06466B78BBB978B9224639460020CB
:102A0000FFF772FF10E00326E0E70126DEE722462B
:102A100039460120FFF768FFE7E73A4621460020E4
:102A2000FFF762FF00E0014E3046F8BD00020204ED
:102A300008B519B1407803F097FD08BD407803F060
:102A4000BDFDFAE708B5407803F0A6FD08BD00001B
:102A500038B51C46049D012303FA02F200EB510332
:102A6000B3FBF1F32B60934200D92A6074B12A685A
:102A7000B0FBF2F2207802F0D5F80028B8BF40424F
:102A800034B16368834205D3002038BD0020F7E7E6
:102A90000020FAE70048F8E70002020408B590F8C1
:102AA00000C01CF0020F06D14A1E41780CF0030052
:102AB00003F0E6FA08BD00234A1E41780CF003003B
:102AC00003F042FBF6E770B584B004460D461646A7
:102AD00004F02EFB237813F0020F0CD0022B1FD032
:102AE0001D2203AB0093334629464001FFF7B0FF98
:102AF000C0B104B070BD8BB9082203AB009333465C
:102B00002946FFF7A5FF0028F3D12078039A013A60
:102B1000617800F0030003F0B3FAEAE71022ECE773
:102B20001522DEE7039B5A09207803F01F03013AC0
:102B3000617800F0030003F007FBDAE708B50378DB
:102B4000417803F0030004F00CFB08BD08B531B177
:102B50000378417803F0030003F0DCFB08BD037841
:102B6000417803F0030003F017FCF7E708B503789A
:102B7000417803F0030003F041FC08BD00487047B2
:102B8000349A00102DE9F04182B007460D46904678
:102B9000084602F079F8C6B2002401E00134E4B23C
:102BA000B44213D205238DF804308DF805508DF80A
:102BB000064001A800F0CCF903460028EED13D7094
:102BC0007C700122BA70C7F8048000E0024B1846FE
:102BD00002B0BDE8F08100BF020D020430B583B041
:102BE0000C46054678B184B105238DF8043023786E
:102BF0008DF8053063788DF8063001A800F0A8F94B
:102C000028B103B030BD01BEEDE701BEECE722689C
:102C100063682A606B600123AB70F2E708B5034676
:102C200048B11A78122A08D0032A0AD95A681268B9
:102C30001846904708BD01BEF3E71846FFF702FFAC
:102C4000F8E71846FFF792FFF4E710B5034648B1DE
:102C50001878122808D003280AD9586844681846FA
:102C6000A04710BD01BEF3E71846FFF7E1FEF8E705
:102C70001846FFF76BFFF4E710B5044668B120462D
:102C8000FFF7CCFF98B12378122B08D0032B0AD979
:102C900063689B68204698470AE001BEEFE720463C
:102CA000FFF71CFE04E02046FFF748FF00E000208D
:102CB00010BD10B5034648B11878122808D0032873
:102CC0000AD95868C4681846A04710BD01BEF3E78A
:102CD0001846FFF7F5FDF8E71846FFF7F4FEF4E7AE
:102CE00008B5034648B11A78122A08D0032A0AD92F
:102CF0005A6812691846904708BD01BEF3E71846A6
:102D0000FFF756FEF8E71846FFF7C8FEF4E710B5E0
:102D100082B0044690B1A37803B901BE05238DF8B3
:102D2000043023788DF8053063788DF8063001A8DB
:102D300000F052F90023A37002B010BD01BEEAE713
:102D400008281CD8DFE800F00923051E0B0D0F1121
:102D500013000A20012917D07047082070470C2063
:102D6000F8E70D20F6E70E20F4E70F20F2E74B1E00
:102D7000DBB2012B01D90820ECE70E20EAE701BE07
:102D80000820E7E70B20E5E700F007007047002088
:102D9000E2E700002DE9F04387B0884617461E465B
:102DA0000B238DF808304FEAD0098DF8099000F018
:102DB00007048DF80A40029BADF814301B0C8DF807
:102DC0001630059DADF810502D0C8DF81250049D55
:102DD000ADF80C502D0C8DF80E5003A800F0B8F88B
:102DE000054618B1284607B0BDE8F083414638468D
:102DF000FFF7A6FF0246B9F10E0F0BD8074B1B6871
:102E0000986900EBC910002300933346214602F075
:102E1000E5F8E7E7014B1B689869F4E7642B0008C5
:102E200070B504280DD00D46114602463B4C34F8CF
:102E300010E0441C1D2C07D8E4B2384E36F814407C
:102E400004E00D250520F0E740F20B144FF0010CD3
:102E50000CFA02FC324A0CEA02023AB9AE44A3F878
:102E600000E01B88A34257D2002070BDC21E182A62
:102E700032D8DFE802F00D313431310F25312931FC
:102E8000313131312B312D3131313131312F270079
:102E9000244A00E0244A1C80002AE2D00338182883
:102EA00035D8DFE800F01E343734341E2E34303489
:102EB000343434341E341E343434343434321E004A
:102EC0001A4AE8E71A4AE6E71A4AE4E71A4AE2E742
:102ED0001A4AE0E71A4ADEE701BE0022DBE7194A98
:102EE000D9E70126B542BCD2505D704411FA80F199
:102EF0001980691CB142B4DA2A4454787444A4B2EB
:102F0000AFE70226EEE71026ECE70226EAE701BE6D
:102F10000026E7E71A26E5E70B48A6E7BC9A00106B
:102F2000280B0A0C749A0010949A0010989A0010BA
:102F3000B89A00109C9A0010AC9A0010B09A001039
:102F4000B49A0010789A0010000D02040020704717
:102F5000F0B583B004460027FFF7ABFC06460DF141
:102F60000603A27861782078FFF75AFF054668B912
:102F7000BDF80630C3F3C70203F007031449895CA8
:102F8000012202FA03F3194218BF174605B9EFB937
:102F90002DB13046FFF791FC284603B0F0BD0DF18E
:102FA0000603A27861782078FFF73AFF05460028EB
:102FB000EFD1BDF80630C3F3C70103F0070304489F
:102FC00001229A40435C13434354E2E7014DE0E79A
:102FD000D4290008010D020430B583B00446FFF780
:102FE00068FC05460DF10603A27861782078FFF7AA
:102FF00017FF024660B9BDF80630C3F3C70003F0FF
:103000000703074C01219940235C23EA0103235461
:1030100002B101BE2846FFF750FC03B030BD00BF2F
:10302000D42900082DE9F04F85B080460F4692461E
:1030300001935A4B33F81020431C1D2B12D8DBB2DE
:10304000564931F81390012303FA08F3DFF878B1F9
:1030500003EA0B0BA9EB02091FFA89F900252E469A
:103060002C4617E040F20B19EDE70123BAF1000FEF
:1030700008D031462046019B9847BAF8001000F06E
:103080007CFA0346B3B9BBF1000F25D10134E4B299
:103090000135ADB24D457BD2002FE6D031462046FA
:1030A0000E9B98470146388800F067FA03460028CF
:1030B000E8D0DBE78DF80C808DF80D408DF80E60C0
:1030C00003A8FFF745FF03460028DCD10F9A82F8DA
:1030D0000080547096705CE0A8F10303182B30D880
:1030E000DFE803F00D2F322F2F0F232F272F2F2F45
:1030F0002F2F292F2B2F2F2F2F2F2F2D2500284A11
:1031000000E0284AA8F10303182B31D8DFE803F0C8
:103110001E303330301E2A302C30303030301E30EC
:103120001E3030303030302E1E001F4AEAE71F4A72
:10313000E8E71F4AE6E71F4AE4E71F4AE2E71F4ABB
:10314000E0E701BE0022DDE71D4ADBE70123611C49
:10315000994204DA11194878691C88420DDD01365C
:10316000F6B295E70223F2E71023F0E70223EEE739
:1031700001BE0023EBE71A23E9E70134E4B29C42E5
:1031800004D2115DA942F8D9002681E700267FE725
:103190000C4B184605B0BDE8F08F00BFBC9A00107C
:1031A000749A0010949A0010989A0010B89A00101F
:1031B0009C9A0010AC9A0010B09A0010B49A0010BB
:1031C000789A0010020D0204280B0A0C00B583B097
:1031D0000191002100910B460A46FFF723FF03B03F
:1031E0005DF804FB074B1A689368B2F870C063443B
:1031F000B2F8722002FB00F000EB8100C058C0B2B0
:10320000704700BF642B000808B58E469DF8081073
:1032100071B90C4B19688B68B1F870C06344B1F890
:10322000721001FB00F000EB82020020D05008BDBC
:1032300042EA0021002241F080414EEA002004F0E1
:1032400023FDF4E7642B00082DE9F041844618467D
:103250009DF81CE09DF820409DF82430EBB92049F2
:103260000C68A368B4F870502B44B4F8724004FBA7
:103270000CFC0CEB820C00224CF803200C68A368B9
:10328000B4F870101944B4F8723000FB03F303EB88
:103290008E035A501046BDE8F08141EA0C2642EAFE
:1032A0000C2242F080459DF8187047EA00274EEA4C
:1032B000002848F080487146FFF794FF08B109489C
:1032C000E9E7234600222946304604F0DDFC0028C9
:1032D000E1D1234600224146384604F0D5FCDAE726
:1032E000642B0008000C02042DE9F04F89B09046D1
:1032F000420800F001030593964B13F80190964B9A
:103300005B5C0693B9F1090F07D0B9F10A0F34D00D
:10331000002319461C460A2573E0931F9BB21F2BFE
:1033200000F20681A1F2D7139BB2072B00F20281B3
:10333000053A95B2DCB221460920FFF753FFB8F1F8
:10334000020F02D0002840F0F780B8F1020F02D13E
:10335000002800F0F380B8F1000F01D10020CBE08D
:10336000B8F1010F14BF002301230093059B2246EF
:10337000E9B20920FFF748FFBEE0B1F5E67F44D986
:10338000B1F5EA7F46D8931F9BB21F2B00F2D8807D
:10339000053A95B2A1F2CD11CCB221460A20FFF731
:1033A00021FFB8F1020F02D0002840F0CB80B8F125
:1033B000020F02D1002800F0C780B8F1000F01D140
:1033C000002099E0B8F1010F14BF002301230093FE
:1033D000059B2246E9B20A20FFF716FF8CE0013474
:1033E000A4B25E4B33F81530A34207D95C4B53F8B7
:1033F000253033F814309342F1D1012179B90135E8
:10340000ADB20E2D0BD80024EBE7002319461C4665
:103410000A25F6E7002319461C460A25F1E7049120
:10342000002900F09380A5F10A03042B00F290809C
:10343000DFE803F003150B0E1100D020C921002393
:103440001F469B4642F2107A0EE0EA20E121F6E7A1
:10345000FC20EB21F3E74FF48670FD21EFE7E0203D
:10346000D121ECE701339BB23C4E36F819609E4205
:1034700011D93B4A52F8292032F813208A42F1D35D
:103480008242EFD89A4502D9521A97B29A469B4582
:10349000E8D29B46E6E7FBB207931E4604E0B8F18C
:1034A000020F17D00136F6B2ABEB0A0301333B44EF
:1034B0009E4218DAB8F1020FF1D03146E8B2FFF7B8
:1034C00091FE0028EBD106EB0A02D2B2079BD21A7A
:1034D000D2B20BE03146E8B2FFF784FE80B2A042E0
:1034E000E0D1002202E0002304931A46049B33B18A
:1034F000B8F1000F0AD1002009B0BDE8F08FB8F193
:10350000020F01D01748F7E71748F5E7B8F1010FA8
:1035100014BF002301230393059B0293069B019391
:1035200000924B463246E1B2E8B2FFF78DFEE3E788
:103530000C48E1E70B48DFE70C48DDE70A48DBE72A
:103540000848D9E70948D7E70748D5E70548D3E74A
:103550000448D1E7C4900010F4970010D4990010EB
:10356000C4220008010C0204020C0204000C020434
:1035700008B50222FFF7B8FE08BD08B50022FFF724
:10358000B3FEB0FA80F0400908BD000070B582B00B
:103590000D468378772B16D8DA08134909688E69A7
:1035A00006EBC216C27803F00704009201232A46F4
:1035B0002146304601F012FD0A2D08D00B2D0CD00B
:1035C000002002B070BD084A12689669EAE701223D
:1035D0002146304601F05CFDF2E7002221463046EC
:1035E00001F056FDECE700BF642B000810B582B077
:1035F0000146772810D8C308094A1268906900EB81
:10360000C310002400940123082201F0070101F0F7
:10361000E5FC204602B010BD014B1B689869F0E73D
:10362000642B000812381E2821D8DFE800F01E2085
:10363000202020202020202020202020202020208A
:1036400020202020201023121416181A1C000020FD
:103650007047022070470320704704207047052000
:10366000704706207047072070470820704701BE4A
:10367000002070470120704738B50346084850F8CD
:103680002340084850F8235044B12DB10023184678
:103690000BB92046A84738BD0123F8E70123F6E718
:1036A0001C2A0008F82900082DE9F04105460F46BC
:1036B000084601F09EFA064600244FF0010817E084
:1036C000022229463046FFF7D7FF0136F6B2B44250
:1036D000F6D8022F1AD0082F18D0012F19D1B8F11F
:1036E000000F16D00C4B01221A7012E00134E4B224
:1036F000082CEED8324629462046FFF7BDFF80460B
:103700000028F3D1012FF1D10026E0E7024B00227F
:103710001A704046BDE8F081F629000808B5EFF3BD
:103720000580103800B2FFF77DFF024B53F82000F0
:1037300008BD00BF1C2A00082DE9F04383B0804675
:103740000E4617469946002416E099F802206B7839
:103750009A4201D0002325E0012323E017238DF8AE
:103760000430735C8DF805306B788DF8063001A855
:10377000FFF7EEFBC8B10134BC421AD2A10006EB40
:10378000840595F802C0C445F5D1B9F1000FE5D024
:1037900099F80030172BE1D199F80120735C9A4217
:1037A000D3D00023002BE6D004E001A8FFF714FCDF
:1037B00000E00025284603B0BDE8F0832DE9F04382
:1037C00083B007460D4616460024A14600E00134AA
:1037D000B44220D24FEA840805EB840393F802C078
:1037E000BC45F4D117228DF8042015F824208DF85B
:1037F00005205B788DF8063001A8FFF7A9FB0028AB
:10380000E5D101A8FFF7E8FB15F808200123934054
:1038100049EA0309DBE7484603B0BDE8F08300004E
:10382000014B1878704700BFF629000808B5124B05
:1038300043F82010114B43F8202000231A4601E0E2
:103840000133DBB2082B08D80B4850F823000028BE
:10385000F6D0012A07D00132F2E72AB901B101BE40
:10386000074800F06BF908BD012AFCD10029FAD005
:10387000034800F057F9F6E71C2A0008F829000869
:103880001C2300082DE9F0410446884616461F46D1
:1038900004E0012288F80020E2B1E46840F2897572
:1038A000AC4217D02568002DF7D094F804C036EA52
:1038B0000C03F2D1637937EA0303EED0A2683946EC
:1038C0003046A8470028E4D1012F01D00122E1E7CA
:1038D0000022DFE72046BDE8F08170B504460D46C2
:1038E000164600E0E468AC420FD02368002BF9D004
:1038F000217936EA0102F5D1627912F0020FF1D195
:10390000A268022130469847ECE770BD38B50546FD
:103910000C46FEF7CEFFE36813B1FEF7CEFF38BDCD
:103920002B68E3602C60F8E738B504460D46FEF7D7
:10393000C0FF01E003F10C04236840F28972934256
:1039400005D0AB42F6D1EB6823600023EB60FEF7B5
:10395000B4FF38BD2DE9F04182B00D4601F055F9B4
:10396000044601238DF80730022806D0082804D029
:103970001A4B1E681A4B1F6803E0184B1F68184B40
:103980001E6823462A460DF107013846FFF77AFFE5
:1039900080469DF8073063B930469DF807300BB973
:1039A000012C0ED09DF80730B3B1002002B0BDE865
:1039B000F08123462A460DF107013046FFF762FFEA
:1039C000EBE72A4601463046FFF787FF2A46414685
:1039D0003846FFF782FFE5E70248E7E730230008B3
:1039E0002C230008FF00420038B50C461021204669
:1039F000FFF7B0FF0546042C01D0284638BD002053
:103A000003F086FB0349A1FB0031890C012003F080
:103A1000DFFCF2E783DE1B4338B50C460821204665
:103A2000FFF798FF0546082C01D0284638BD002036
:103A300003F06EFB0349A1FB0031890C002003F069
:103A4000C7FCF2E783DE1B4308B508460421FFF7F5
:103A500081FF08BD10B50446FFF77CFF042C02D09F
:103A6000082C17D010BD4FF0E0231B6913F0010F95
:103A700004D00E4B1B7813B1012300E000230C4A45
:103A80001370002BEED04FF0E022136923F00103F6
:103A90001361E7E7064B1B78002BE3D04FF0E022E1
:103AA000136943F001031361DCE700BF422A0008F9
:103AB000DC2A000808B50846012902D1044B1B88FE
:103AC0001BB90221FFF7C6FF08BD0248FCE700BF93
:103AD000402A0008FF00420008B508460121FFF710
:103AE000B9FF08BD38B584468E4615460C4C0FCC40
:103AF000CCF80000CCF80410CCF80820CCF80C303E
:103B000007CCCCF81000CCF81410CCF81820CCF866
:103B100000508CF804E0604603F0DCFD38BD00BFC7
:103B2000309B001008B5014618B10348FFF7EEFEC0
:103B300008BD01BEF9E700BF3023000808B5014603
:103B400018B10348FFF7F0FE08BD01BEF9E700BF5A
:103B50003023000808B503F0B3FF38B9164A002136
:103B60001648FFF7BFFF20B9154808BD03F0FCFD5C
:103B7000F4E7144A01211448FFF7B4FF08B91048CC
:103B8000F3E7124A02211248FFF7ACFF08B90C48CC
:103B9000EBE7104A03211048FFF7A4FF08B90848D3
:103BA000E3E70E4A04210E48FFF79CFF08B100200E
:103BB000DBE70348D9E700BFD93A0010BC2A000868
:103BC00001190204B53A00104C2A0008493A0010C5
:103BD000682A0008193A0010A02A0008E9390010E4
:103BE000842A0008024600B101BE024B43F82210AD
:103BF000704700BFD82A000800231F2B06D8054AAB
:103C000052F8232022B90133DBB2F6E700207047D7
:103C100001207047E02A0008022906D008295ED05A
:103C2000012953D001BE01207047334B00221A7086
:103C3000012070470133DBB2304A02EB0112127BE4
:103C40009A420DD92D4A02EB0112527B1A442C4D97
:103C500055F82220002AEDD001229A401043E9E7CE
:103C600000B1A0600CF1010C5FFA8CFCBCF1010FFB
:103C700007D861464FEA0C13204AD458002318464F
:103C8000DAE71D4B00221A70012030BC7047013367
:103C9000DBB21A4A02EB0012127B9A4213D9174A7E
:103CA00002EB0012527B1A44154951F82220002AD7
:103CB000EDD05168927A043201EB82125268002AE8
:103CC000E5DA002070470130C0B200E00020012892
:103CD00001D80023DDE70120074B187070474FF033
:103CE000000CBCF1010F01D830B4C2E7024B002236
:103CF0001A700120704700BF602B00084C9B001019
:103D0000E02A000870B5EFF30582103A90B212B2C3
:103D1000002301E00133DBB2012B11D8184901EB7C
:103D20000311897B8A42F5DB154C04EB031C9CF8DC
:103D30000CC08C446245EDDAC0B2411AC9B200E051
:103D40000021012B01D901BE70BD0D4A180102EB03
:103D5000031314580E4604EB8112D2F83C515B7BDE
:103D60001944084B53F82120D36913B12946106A2E
:103D7000984704EB8614C4F83051D4F83031E3E7A7
:103D80004C9B0010E02A0008014B1878704700BFD8
:103D9000602B000810B50446002307E003F1100271
:103DA00004EB4202002191800133DBB2042BF5D9F0
:103DB000FFF722FF50B1627A064B03EB02135B7BE5
:103DC000A27A1344044A42F8234010BD0348FFF787
:103DD000A9FEF0E74C9B0010E02A000834230008FD
:103DE0002DE9F04182B005468846174643781A4EC1
:103DF00006EB03135C7B83781C44E4B2FEF759FDA9
:103E0000164B53F82430C3F81C801F62FEF755FD93
:103E10006B7806EB03139C7BAB78E5186A09104BB3
:103E200053F8223005F01F02D34013F0010F10D1D8
:103E3000ADF80050072301930A49684603F0F4F9EE
:103E400005F01F036C09012202FA03F3044A42F849
:103E5000243002B0BDE8F0814C9B0010E02A00083D
:103E600000E100E0053D001030B58C469DF80C40A7
:103E700091F802E000EB8E11D1F838113CB122EA42
:103E8000010500EB8E1ECEF83051DEF830519CF863
:103E900002E0B4B1114300EB8E10C0F838119CF869
:103EA0000110094A02EB0112927B9CF802100A44AD
:103EB0005901C9B202F1604303F5614383F800136D
:103EC00030BD21EA0201E6E74C9B001010B901F178
:103ED00027007047012800D001BE01F1350070476E
:103EE00070B504460E461546407AA27A042D00F2BB
:103EF0008580DFE805F003273E556C00636803EB1F
:103F0000821CDCF82031C3F30343DCF8201121F4D8
:103F10007021CCF82011616801EB8212D2F82411D3
:103F200041F44071C2F82411023BD9B2FFF7CEFF31
:103F300001463046FFF71CFB18B9103504EB450469
:103F4000A08070BD636803EB821CDCF82031C3F3F2
:103F50000333DCF8201121F47041CCF820116168A2
:103F600001EB8212D2F8241141F0C001C2F82411F1
:103F7000DAE7636803EB821CDCF82031C3F3032328
:103F8000DCF8201121F47061CCF82011616801EB9C
:103F90008212D2F8241141F03001C2F82411C3E793
:103FA000636803EB821CDCF82031C3F30313DCF8F5
:103FB000201121F0F001CCF82011616801EB821290
:103FC000D2F8241141F00C01C2F82411ACE7636867
:103FD00003EB821CDCF8203103F00F03DCF8201126
:103FE00021F00F01CCF82011616801EB8212D2F8A8
:103FF000241141F00301C2F8241195E70048A0E71D
:104000000021020438B5054630B36A7A314B03EB20
:1040100002139B7BA97A5A1802F01F01530901224F
:104020008A4020332C4941F82320BFF34F8FBFF340
:104030006F8F6B68002B36D06A7A264B03EB021326
:104040005B7BAA7A1344254A002142F82310FFF72C
:10405000D3FD18B1002307E001BED6E72048FFF7E3
:104060006DFDF7E70133DBB2042BFBD9002401E03F
:104070000134E4B2042C0BD804F1100305EB430324
:1040800099880029F4D022462846FFF729FFEFE758
:104090006A68A97A01238B4053602B7833B10023DF
:1040A0006B601E232B722B7D2BB938BD05F10800E8
:1040B000FEF792FFF3E7287B697B00F0030002F034
:1040C0006BF900B101BE05F10C00FEF720FE0023E4
:1040D0002B75EAE74C9B001000E100E0E02A0008A5
:1040E00034230008F0B583B004460E46037D53B177
:1040F0000025154B93E8030002AB03E9030025B14B
:10410000284603B0F0BD114DF3E704F10C0700227F
:1041100011463846FEF799FD08B10D4DF0E76A46A5
:1041200031463846FEF7C5FD08B1094DE8E70022E3
:1041300001213846FEF789FD08B1054DE0E7384614
:10414000FEF79AFDA061DBE76C9B0010031C0204E4
:10415000011C0204F8B504460E4600F10801437A3A
:1041600027481D0100EB0313405960601879A37ABA
:104170001844C7B2D2B104F10C03D2E9000183E8BC
:1041800003001846FEF778FDA061217B627B01F0F9
:104190000301384602F082F838BB3246A17A6068E3
:1041A00003F0B4FC054615B32846F8BD01231A46B2
:1041B00004F10C0000F086FD054610B1002DF2D18F
:1041C000EBE7012323750F492046FFF78BFF0546D8
:1041D0000028F3D1217B627B01F00301384602F015
:1041E0005DF80028EAD0084DDDE7074DDBE7204603
:1041F000FFF7D0FD6268A17A01238B409360D3E77B
:104200004C9B001040420F00011C020470B5144684
:10421000064620B1FF2904D00F4D284670BD01BECF
:10422000F8E734220021304603F0FCFF31461E231C
:1042300001F8083F1A20FEF7C9FF054628B1002DF6
:10424000EBD03046FFF7DEFEE7E722460349304673
:10425000FFF780FF0546F2E7001C0204749B001084
:1042600010B5044668B1FFF78FFD60B96168A27AA6
:10427000012303FA02F28A606268A17A8B4093619B
:1042800010BD01BEEFE70148FAE700BF03190204C1
:10429000034630B15A68997A01238B40536000205D
:1042A000704701BEF6E7024640B15368917A126B3F
:1042B00003EB8113C3F808210020704701BEF4E727
:1042C00070B594B004460D46CB6803634C22204978
:1042D00001A803F099FF6B680193AB6806932B78F4
:1042E00083F001030393AB7853B1002305936B78FC
:1042F000012B07D0022B07D043B301BE002304E0FB
:104300000223F3E7012300E0032304936068A17A0A
:1043100000EB8113D3F8386101AA03F089FC01AAEC
:10432000A17A606803F0F2FB05466268A17A012376
:104330008B4093606368A27A03EB8213C3F8386101
:104340002046FFF7B0FF284614B070BD0023DCE71D
:10435000749B0010012803D0022803D1032070476A
:1043600002207047002070470138032809D8DFE891
:1043700000F0020B04060220704706207047082058
:10438000704701BE0220704704207047814206D961
:10439000091A642303FB01F1B1FBF0F07047411AE5
:1043A000642303FB01F1B1FBF0F070472DE9F04FFE
:1043B00087B004460F4690461E469DF840A01E2337
:1043C000037100234373FF23C3710372437283722B
:1043D000FEF76FFA834605225E493846FFF7EEF98D
:1043E000054604225C494046FFF7E8F90540FF2EE8
:1043F00005D1BAF1FF0F09D17DB1002314E00622E7
:1044000056493046FFF7DAF90540F2E707225449EA
:104410005046FFF7D3F90540EEE75846FEF74DFA50
:10442000504D41E00133DBB225FA03F212F0010FE7
:10443000F8D017228DF814208DF8153000238DF850
:10444000163005AB052243493846FFF775F981461A
:1044500005AB042240494046FFF76EF9054603903C
:1044600005AB06223D493046FFF766F9019005ABE2
:1044700007223B495046FFF75FF90290B9F1000F60
:1044800009D045B1FF2E01D0019B23B1BAF1FF0F36
:1044900002D0029B03B901BE05A8FEF759FD0546EF
:1044A0005846FEF70AFA1DB1284607B0BDE8F08F5E
:1044B000059BA3801B0CA3710621484600F03DFB21
:1044C000054678B355B9019B43B10821184600F061
:1044D00034FB054610B90123E37266725DB9029B95
:1044E0004BB10621184600F028FB054618B90123F8
:1044F000237384F80AA055B9119BF3B100236373A9
:1045000004F11003119A92E8030083E80300002DE0
:10451000CAD1217C627C01F00301607901F0BEFE0A
:104520000546C1E727720821039800F006FB0546FF
:104530000028C7D184F80780C4E701231A46211D4B
:1045400004F1100000F0BEFB0546B0FA80F35B09F1
:104550006373DCE7B0900010A09000106C90001026
:1045600084900010001E020470B582B004464279A7
:104570001C4B53F82200214641F8540B04F1180259
:1045800001F094FA054610B1284602B070BD002330
:10459000C4F89C30C4F8A030C4F894306379124E4B
:1045A00036F91330ADF80030072301930F49684600
:1045B00002F03AFE637936F91330002B07DB03F083
:1045C0001F015B0901228A40094941F82320094A59
:1045D00021466079FFF72AF92268136843F0004307
:1045E0001360D1E7F89A00101C9B0010414700109F
:1045F00000E100E0F94500102DE9F8430446037A94
:10460000FF2B0CD0D908772B05D84C480068866959
:1046100006EBC11604E0494909688E6900E00026EE
:10462000A17AFF290ED0207BD0B1C808772905D800
:10463000424D2D68AF6907EBC01704E03F480068A2
:10464000876900E0002703F0070501F00708013A39
:10465000072A65D8DFE802F0064F64686464644F97
:104660000027F0E7A14659F8180B494601F074FC01
:1046700010F0010F01D0002054E04946206801F0FD
:1046800069FC10F0010F51D12168D1F80832C3F351
:104690000803D1F80822C2F3C032D34248D1D1F87E
:1046A0000833C3F30803002B44D176B129463046C2
:1046B00000F0CEFC84F898002946304600F0F6FC65
:1046C00000222946304600F051FC77B14146384679
:1046D00000F0BEFC84F899004146384600F0E6FC44
:1046E00000224146384600F041FC4946206801F06E
:1046F0008DFB012016E02268136843F0004313602D
:104700002EB194F898202946304600F02FFC9FB136
:1047100094F899204146384600F028FC012001E039
:1047200001BE0020BDE8F8830120FBE70020F9E787
:104730000020F7E70020F5E70120F3E7642B0008ED
:1047400070B5FEF7EBFF0446014651F8180BD0F8A0
:104750008C5FD0F8CC6F01F001FC15F0200F09D070
:1047600023682022C3F8802FD3F8803FE36C0BB17D
:104770001046984715F0400F09D023684022C3F82F
:10478000802FD3F8803FE36C0BB12020984715F0C1
:10479000010F04D0E36C13B14FF48070984715F407
:1047A000007F13D023684FF40072C3F8802FD3F832
:1047B000803F2268D2F8883F43F4007123F4EE630F
:1047C00023F0030303B101BEC2F8881F16F0400FA7
:1047D00009D023684022C3F8C02FD3F8C03FE36C50
:1047E0000BB11020984716F0010F04D0E36C13B101
:1047F0004FF40070984770BD38B50C46154602F06E
:1048000097FC05FB04F4B0FBF4F038BD2DE9F84348
:1048100080460E460824FF27A14601E00134E4B299
:10482000102C15D806FB04F502F082FC00EB5501B4
:104830002246B1FBF5F14046FFF7DEFF0146304668
:10484000FFF7A4FDC0B28742E8D90746A146E5E7D5
:104850004846BDE8F883000010B5044688B12068DA
:1048600040B104F1180101F0D1FA206801F0AAFA70
:104870000023236023791E2B05D194F8A43023B3A1
:1048800010BD01BEEBE762791B4B33F91230002BF0
:104890000CDB03F01F015B0901228A40203317491A
:1048A00041F82320BFF34F8FBFF36F8F00221146D3
:1048B0006079FEF7BBFF94F8A43013B11E23237177
:1048C000DBE7201DFEF788FBF8E7E01D00F02AF982
:1048D00004F1080000F026F904F10A0000F022F9C2
:1048E00004F1090000F01EF9637B002BC8D004F12D
:1048F0001000FEF70CFAC3E71C9B001000E100E07B
:10490000437B0BB9334870472DE9F04704460E4608
:1049100090460546002155F8100B01F077FA002269
:1049200011462846FEF791F930B12268136843F02A
:1049300000431360BDE8F08704F10409314648469E
:10494000FFF764FF0746A06500FB06F602F0F0FBE8
:1049500000EB5600B0FBF6F631462846FEF7C0F9EC
:10496000824640BB3A4631464846FFF745FFB8F11C
:10497000000F01D0C8F80000002201212846FEF7F0
:1049800064F994F8703013B34FF48033E26D082A61
:1049900001D84FF4006A43EA0A03013F07F00F070A
:1049A0001F43236847F000771F602268136843F0B5
:1049B00000431360BEE7002201212846FEF745F9B7
:1049C0002268136843F0004313605046B2E7534631
:1049D000DCE700BF061E0204F8B506460F46154682
:1049E000FEF71EFFA8B93368D3F840332C4602E027
:1049F0003368D3F84033B3F1FF3F07D1002DF7D030
:104A00004CB1012002F044FC013CF1E73B70002076
:104A1000F8BD0248FCE70248FAE700BF03190204A8
:104A2000021E020438B504460D46FEF7F9FE28B111
:104A3000044806E02946206800F029FF0028F9D044
:104A4000002038BD0319020408B5034630B139B15E
:104A500053F8180B01F0E6F9002008BD01BEF6E797
:104A600001BEF5E72DE9F04182B00C4616469846A6
:104A70000A9F0546002844D0A8220021284603F0BA
:104A8000D1FB099B01939DF82030009343463246A9
:104A900021462846FFF78AFC044618BB05F1540C52
:104AA0001F4C0FCCACE80F000FCCACE80F000FCCC4
:104AB000ACE80F0094E80F008CE80F00EB7A85F863
:104AC00074305FB13B68EB653879FFF74DFC85F8D2
:104AD0006100387AFFF73EFC85F862002846FFF750
:104AE00043FD044644B92FB1F96819B13A69284623
:104AF000FFF7AAFF6B7B33B96CB9204602B0BDE863
:104B0000F08101BEB8E700224FF4E1312846FFF7FB
:104B1000F7FE0446F0E72846FFF79EFEEDE700BFEC
:104B2000C09B001010B504460078FF2800D110BDCE
:104B300000F037F8FF232370F9E770B584B004461E
:104B40000D4683780B228DF80020DA088DF80120BD
:104B500003F007038DF80230009BADF80C301B0CFE
:104B60008DF80E30039BADF808301B0C8DF80A3021
:104B7000029BADF804301B0C8DF8063001A8FEF73F
:104B8000E7F9064610B1304604B070BD294620460C
:104B9000FEF7FCFC06460028F5D001A8FEF71CFA3B
:104BA000F1E710B584B00446FEF720FD00B101BE68
:104BB0000B238DF80030E3088DF8013004F0070472
:104BC0008DF80240009BADF80C301B0C8DF80E30B8
:104BD000039BADF808301B0C8DF80A30029BADF832
:104BE00004301B0C8DF8063001A8FEF7F5F904B06F
:104BF00010BD431E072B05D8DFE803F006060406A8
:104C00000404040601BE01207047431E072B05D88B
:104C1000DFE803F0060604060404040601BE0120D2
:104C200070470000012807D002280DD010B101BE46
:104C300000207047881A7047A1EB020C114A02FB52
:104C40000CFC9CFBF1F0704738B50023B1EB020C73
:104C500063EB03041CEB0C0044EB040210EB0C00B0
:104C600044EB02024FEA421E4EEAD06E4501401963
:104C700042EB0E0E10EB0C000A4644EB0E0103F063
:104C8000B9F838BD40420F00122817D8DFE800F00D
:104C90000A180C0E161616161616161616121610DA
:104CA0001616140008207047042070470120704732
:104CB000012070470520704705207047012070478C
:104CC000102070472DE9F04383B0044616461F4676
:104CD0000B4691B119780539182933D8DFE801F06E
:104CE0002A3232323232320F323232323232320FF2
:104CF0001C32323232323232230001BEEAE71F4B1D
:104D000093E8030002AB03E9030069462046FDF780
:104D100065FF03B0BDE8F083194B93E8030002ABD5
:104D200003E90300F1E7174B93E8030002AB03E943
:104D30000300EAE701BE1448EBE74FF001090EE07B
:104D400001BE0EE00025A9461048032DE1D8104B06
:104D500013F805804645F0D0B9F1000F0CD0002CB7
:104D6000EED0FDF70BFF024641462046FDF70AFF55
:104D70000028CED0002FCCD00135E6E7FC990010FA
:104D8000049A00100C9A001002020204020D0204A0
:104D9000009C0010014B1860704700BF642B000896
:104DA000044A136F43F010031367034B00221A6089
:104DB000704700BF00F03D4010280008B0F1204FC0
:104DC0003CD018D880283BD007D9B0F5807F3FD0A1
:104DD000244B984209D024487047102832D04028EC
:104DE00001D12248704700282ED170474FF4A4000B
:104DF00070471D4870471E4B98422BD02DD31D4B3A
:104E000098422CD8B0F1704F12D900F1805001387F
:104E10000428EED801A353F820F000BFED4D001098
:104E2000F34D00104D4E0010354E0010394E00105D
:104E30000D48704710487047104870470020704771
:104E40000F4870470F487047074870470E48704733
:104E5000044870474FF4A000704703487047024869
:104E6000C3E700BF06005200FF00520002005000DE
:104E7000090000A0050000F00200520003005200EB
:104E800005005200010050000100520010B5104B07
:104E90001B6893F83330012B00D801BE0C4B1C6803
:104EA000236AB4F8BA201344D4F8BC20D358002B9A
:104EB0000BDB084B1868FFF781FF636801229A60DB
:104EC00063689B68002BFBD110BD0348FCE700BF63
:104ED000642B0008682B0008020050001A4B186071
:104EE00028B102230370FF23437000234380174B34
:104EF0001B6893F8502002B9704700B583B0B3F92E
:104F00003A30ADF80030002301931149684602F0B1
:104F10008BF9BDF90030002B07DB03F01F015B09A3
:104F200001228A400B4941F82320084B1B6893F863
:104F3000513013B903B05DF804FB02220649012089
:104F400000F01AFBF6E700BF782B0008642B00087E
:104F50001524000800E100E0A524000808B5024877
:104F6000FFF7BCFF08BD00BF5027000810B5072998
:104F700000D901BE32F01F0300D001BE164B1B68E2
:104F80009C69001BC0095B694FEA001C03EB001021
:104F9000032910D853F80C00C9004FF01F0E0EFA69
:104FA00001FE20EA0E0002F01F0202FA01F10143A5
:104FB00043F80C1010BD04394368C9004FF01F0CB2
:104FC0000CFA01FC23EA0C0302F01F0202FA01F1C1
:104FD00019434160EEE700BF642B0008F8B50746AF
:104FE0000D4614461E469DF81820072900D901BE1B
:104FF00034F00F0303D1012C01D0092C00D101BEE4
:10500000012E00D901BE32F01F0300D001BE294697
:105010003846FFF7ABFF3B680122AA4023EA0203B0
:1050200006F00106AE401E433E60084B1B6893F835
:105030008110CB59AD000F22AA4023EA020304F0ED
:105040000F04AC401C43CC51F8BD00BF642B0008DA
:10505000072900D901BE0D4B1B689A69801AC00947
:105060005B69020103EB0010032906D89858C900B8
:1050700020FA01F101F01F00704704394068C900AF
:1050800020FA01F101F01F00704700BF642B0008F7
:10509000072900D901BE012A00D901BE012303FA64
:1050A00001F10AB94160704781607047072900D952
:1050B00001BE012303FA01F181607047072900D97D
:1050C00001BE012303FA01F1C160704700B5072951
:1050D00000D901BE32F00F0303D1012A01D0092A01
:1050E00000D101BE89000A4B1B6893F881E05EF88D
:1050F00000304FF00F0C0CFA01FC23EA0C0302F015
:105100000F028A401A434EF800205DF804FB00BFEE
:10511000642B000800B5072900D901BE012A00D977
:1051200001BE0A4B1B6893F882E05EF800304FF036
:10513000010C0CFA01FC23EA0C0302F001028A4084
:105140001A434EF800205DF804FB00BF642B0008F2
:10515000082900D901BE012A00D901BE83694FF098
:10516000010C0CFA01FC23EA0C0302F001028A4054
:105170001A4382617047000000B5082900D901BEBA
:10518000032A00D901BE4900094B1B6893F880E04F
:105190005EF800304FF0030C0CFA01FC23EA0C031C
:1051A00002F003028A401A434EF800205DF804FB27
:1051B000642B0008002800F0A280F8B50D461446C4
:1051C0000646002A00F09D80072900D901BE236809
:1051D000012B00D901BE636833F00F0203D1012B0C
:1051E00001D0092B00D101BE237A33F01F0300D078
:1051F00001BEE368032B00D901BE2369012B00D94E
:1052000001BE6369012B00D901BE236A012B00D9BD
:1052100001BE636A012B00D901BEA36A012B00D92C
:1052200001BEE36A032B00D901BE236B072B00D913
:1052300001BEE369032B00D901BEA369012B00D98C
:1052400001BE0121A9406A0002F1100C032303FAF8
:105250000CF319432C4F3B6893F88300835923EADE
:105260000101A36903F00103AB400B43E26902F0C3
:10527000030202FA0CF21343835162682946304656
:10528000FFF724FF227A29463046FFF76FFEE268D7
:1052900029463046FFF770FF226929463046FFF75E
:1052A00057FF626929463046FFF734FF3B6893F8A1
:1052B0008410705820F0FF00236A03F00103626A33
:1052C000520002F002021343A26A920002F00402AA
:1052D0001343E26AD20002F018021343226B520118
:1052E000D2B21343AA0002F47E7293400343735078
:1052F000226829463046FFF7CBFE0020F8BD034860
:1053000070470248FAE700BF642B000801005A000A
:10531000084B1B68D3F8BC301B58002B07DA0B0C6A
:105320001B0403B101BE89B24160002070470248EE
:10533000704700BF642B000801008A000368002B3F
:1053400008DAC2600B0C1B0403B101BE89B2816094
:10535000002070470048704701008A000A4651B19A
:10536000074B1B68D3F8BC301B58002B05DAC36809
:1053700013600020704701BEF2E70248704700BF8B
:10538000642B000801008A00034B1B6803B17047BF
:10539000014B1860FBE700BF8C2B0008F0B4049DA4
:1053A000234C2468002C40D0214C27682C2400FB7F
:1053B00004F43819DEB23E51C3F3072444601B0CD9
:1053C00083601C4B1B6893F833309E4200D301BEB0
:1053D000184B1B681C6AB3F8BA7007FB06440461DB
:1053E000446893F834309C4200D301BE114B1B68D3
:1053F0001B6A803403EB441343618468260C360433
:1054000006B101BE260C360406B101BE1FFA84FCAB
:105410004CEA04449C60C26101620023836115B1BF
:10542000B5F900308381F0BC704701BEBCE700BF16
:105430008C2B0008642B000830B58FB00446002880
:105440004AD0A369072B00D901BEE36A002B45D0DF
:10545000236B002B44D00DF11C0C04F1140EBEE89C
:105460000F00ACE80F00DEF80030CCF800300DF192
:10547000080CA646BEE80F00ACE80F00DEF80030CE
:10548000CCF80030174B1B681B8F079A1344ADF8FC
:105490003030089B0D930CAD00950B9BA26AE16A1E
:1054A0000A98FFF77BFF00210091069B0A460598AA
:1054B000FFF774FF216B284601F0B6FEBDF93030CE
:1054C000002B07DB03F01F015B0901228A4006491C
:1054D00041F823200FB030BD01BEB2E701BEB7E7EF
:1054E00001BEB8E7642B000800E100E030B51546C6
:1054F000002A30D01D4A1268002A2ED01B4A146898
:105500004FF02C0C0CFB00420CFB014148684FF0A3
:10551000010E0EFA00F04FEA004C50680EFA00FE41
:105520001469E4B18869E0B92468002C1BDA2C887E
:105530002C6044EA0C042C601469E56001248C6141
:105540004B6212694FEA1E431B0403B101BE1FFAEE
:105550008EF3936030BD01BECCE701BECEE70448B8
:10556000F8E70448F6E70348F4E700BF8C2B00088F
:1055700004028A0007028A000C4B1B687BB10B4BAC
:105580001B684FF02C0C0CFB0030036A4BB1C36955
:10559000934208D9036A43F822100020704701BEE5
:1055A000EDE701BEF3E70248704700BF8C2B00080F
:1055B0000A028A0070B582B000230193044628B322
:1055C00023692BB363692BB3236A2BB36369DD684B
:1055D0002A0C0BD02A0C12041A601B6820691D4B80
:1055E0001B68D3F8BC301B58002B17DBADB24DB194
:1055F00063691D601B68636A3BB39847002363625D
:105600000023A36163691B6802B070BD01BED7E7C8
:1056100001BED7E701BED7E701BED7E701A9FFF773
:105620009DFE60B9019803681E0CDBB2E2699A42E4
:1056300006D9226A52F8233013B1984700E00026B9
:1056400031462069FFF764FED0E7A36A002BD7D06C
:105650009847D5E7642B000808B5064B1B683BB19B
:10566000044B1B682C2202FB0030FFF7A3FF08BD90
:1056700001BEF5E78C2B00081E4B1B6893F83330F6
:10568000834233D970B50C46002931D00B6813F032
:105690001F0F01D0184870BD164B1B6893F83330AC
:1056A000984200D301BE134B1B681D6AB3F8BA3091
:1056B00003FB0055114E35602268D2080021606856
:1056C00002F0B0FD00212846FFF722FE224600210D
:1056D0003068FFF733FE08B10948DCE70021306885
:1056E000FFF716FE0028D6D00548D4E702487047D9
:1056F0000148D0E7642B000803018A00902B0008C2
:1057000001018A0010B50B4614461AB1E4B1ABB9D9
:105710000E4810BD0029F9D10D4A126892F83320C5
:10572000904200D301BE0A4A11680A6AB1F8BA1061
:1057300001FB0020074A10601846EAE706490B60A3
:105740004C60FFF799FFE4E70048E2E703018A00B5
:10575000642B0008902B0008542700082DE9F04125
:10576000194B1B68DD682B6883422BD90C46460910
:1057700000F01F00012303FA00F8B9B10027124B13
:1057800018680368002B17DA6A6852F8263013EAA3
:10579000080F0FD023EA080342F826300025002125
:1057A000FFF7B6FD54B12846BDE8F081FDF781F85A
:1057B0000746E4E7054DF2E7054DF3E73846FDF708
:1057C0007CF8F0E7034DEEE7902B0008020188001B
:1057D0000301880004018A000B4B1B68DB681A6810
:1057E00082420CD9410900F01F00012202FA00F0A8
:1057F0005B6853F82130034203D0044870470448E3
:1058000070470448704700BF902B000801018800D2
:1058100004018A0000018800084B1B689B6CC34090
:1058200013F0010F00D101BE044B1B681B6910303F
:105830008002185800F00F00704700BF642B00086A
:1058400010B4D0F8003313F0080305D000230DE0A6
:10585000D0F84043CC5401339342F9D35DF8044B64
:105860007047D0F8404321F8134001339342F8D3F6
:10587000F4E710B51446D0F80833C3F308039A428E
:1058800000D31C462246FFF7DBFF204610BD03680D
:1058900013F4006F0AD08022D0F80832C3F3080353
:1058A000934205D0C0F84012012070474022F3E730
:1058B0000020704710B4D0F8003213F0080305D070
:1058C00000230DE0CC5CC0F8404201339342F9D391
:1058D0005DF8044B704731F81340C0F84042013383
:1058E0009342F8D3F4E710B51446036813F4006F3D
:1058F0000DD08023D0F80822C2F308029B1AA342DD
:1059000000D81C462246FFF7D5FF204610BD402395
:10591000F0E70346026812F4006F07D080204008C9
:105920001B6D13F0FF0300D0184670474020F6E7C8
:105930002DE9F04105460C46036813F4006F12D0C0
:105940008027D5F8006206F00806A26A012A0CD862
:10595000D5F80832C3F308039F4202D0A36A012B93
:1059600018D0BDE8F0814027EBE7D4F82480E2624C
:10597000013AB8F1000F00D002B901BE41462846F5
:10598000FFF7B1FFA36A1B1AA36206B140004044AF
:105990006062DDE70023A3623EBB636A1E78FCF70A
:1059A00088FFC5F840624FF40073C5F8803FD5F812
:1059B000803FFCF782FFD5F8883F23F4007222F085
:1059C000010242F4007223F4EE6323F0030303B1F7
:1059D00001BEC5F8882F236843F002032360636B80
:1059E000002BBED001209847BBE7636A1E88D6E72C
:1059F00070B505460C46FFF78CFF0646A169E269C3
:105A000001B102B901BE2846FFF733FF236A034400
:105A10002362E3691B1AE3614BBBA3681BB3E06815
:105A2000B0421CD3013E2B6813F4006F19D08023C1
:105A30009E4200D301BED5F8043323F0FF03F6B233
:105A40001E43C5F804630123C5F8C83F636823F00B
:105A500001036360636B0BB10420984770BD461E61
:105A6000E1E74023E4E70023C5F8C83FEEE7A26979
:105A7000D5F8001311F0080F00D040001044A061C9
:105A8000B342EBD2013B2A6812F4006F0CD08022A3
:105A9000934200D301BED5F8042322F0FF02DBB20B
:105AA0001343C5F80433D9E74022F1E7002800F09A
:105AB0007F810346002900F07D8110B40878022818
:105AC00000D901BE487B0238C0B2062800D901BE09
:105AD000887B20B1022802D0032800D001BE91F8B3
:105AE0002100012800D901BE91F82800012800D921
:105AF00001BE0878012806D9887F48B14868013876
:105B0000062805D903E048680838082800D901BEEE
:105B100088680538042800D901BE4869FF2800D9E3
:105B200001BE8869FF2800D901BE887C30B10878A1
:105B300018B98868092800F0828001BE486B20F4FB
:105B4000366020F00D0000B101BEC86B20F4EE609D
:105B500020F0030000B101BE0878022874D0486824
:105B600000F1FF3C087F002874D04FF480308C682F
:105B7000082C71D84FF4006420430CF00F0C40EA5D
:105B80000C0040F0007018600C6B186810F4006F87
:105B900064D08020844200D301BE8C6B186810F45E
:105BA000006F5DD08020844200D301BE4C6A18682B
:105BB00010F4006F56D08020844200D301BE0878D4
:105BC000000600F040701864487F00284CD0402048
:105BD0008C7C002C4AD04FF4806420430C7C002C39
:105BE00046D04FF4807420434C7C002C42D04FF4BC
:105BF00000742043CC6A04F1FF3C4FEA0C4C0CF4D7
:105C0000702C40EA0C0091F80DC00CF1FF3C0CF038
:105C1000070C40EA0C0091F80EC04FEA0C1C0CF087
:105C2000300C40EA0C009864087B28B34FF4807075
:105C3000CC7B1CBB0C78022C48D0002420E0887B55
:105C400000283FF47BAF78E7887F002887D14FF0AA
:105C5000000C87E700208AE700248DE7402099E7C1
:105C60004020A0E74020A7E70020B1E70024B4E7E8
:105C70000024B8E70024BCE70020D9E74FF4007403
:105C800020438C6804F1FF3C0CF00F0C40EA0C0040
:105C9000C3F8000391F814C08869000400F47F0081
:105CA0004CEA0000C3F81003CC6AD3F8000300F0FC
:105CB0000F000330844201D3102C00D901BEC87FED
:105CC00038B10878012863D0002403E04FF4007451
:105CD000D6E70024487B013800F00700204391F804
:105CE0000EC04FEA0C1C0CF0300C40EA0C0058645B
:105CF000087B00284FD04FF480748868013800F08A
:105D00000F0020430C78012C47D000242043C3F817
:105D1000000291F83000C3F8040391F82000002835
:105D20003ED04FF0007091F82140012C3AD0002471
:105D3000204391F82840012C37D00024204391F8CB
:105D400024402043186591F83800C3F80402486BDA
:105D500020F4926020F002000005000DC3F8C80F87
:105D6000C86B20F08C004005400DC3F8880F1AB3B3
:105D70000020506010609060D0601062D06250636C
:105D80008B7F82F830300D4B93635DF8044B704786
:105D90004FF480749EE70024AFE74FF48034B5E7FA
:105DA0000020C0E74FF08074C2E74FF48034C5E7AD
:105DB00003487047024870470020E6E7EFCDAB008C
:105DC0000160AA00104B03604FF04073036400238E
:105DD000836440F20712C0F80023C0F80433C0F80F
:105DE00010334364C0F80022C0F804320365C0F8E1
:105DF000C83EC0F8883EC0F8C83FC0F8883FC0F829
:105E0000083FC0F8483F70470F000003036823F0C5
:105E10000043036021B100224A600A600A62CA623C
:105E200070470000F8B505460E4614461F4653B1AC
:105E3000BA6B174B9A4200D001BE06B104B901BE3D
:105E400006B114B9F8BD01BEF2E72846FFF761FDBF
:105E5000BE60FC6000233B617B61844214D3441E1E
:105E60002B6813F4006F11D080239C4200D301BE35
:105E7000D5F8043323F0FF03E4B21C43C5F8044310
:105E80000123C5F8C83FDDE7013CE9E74023ECE723
:105E9000EFCDAB0008694B69834202D84B69C01A49
:105EA0007047CB684A699B1A184470472DE9F04146
:105EB00007460D46FFF72DFD8046D7F80863C6F369
:105EC00008062C6931E0002435E06B6B0BB108202B
:105ED00098476B69A34231D10023C7F8C83FECB1A2
:105EE000013C2C61EC6829463846FFF7D3FF201AA5
:105EF000804511D900B101383B6813F4006F27D0F9
:105F00008023984200D301BED7F8043323F0FF0367
:105F1000C0B21843C7F80403BDE8F081EC68013C47
:105F2000DFE7AB6823F81420013E002ED9D00134FE
:105F3000EB68A342C7D06B69A342C6D0D7F8402311
:105F4000D7F8003313F0080FEBD1AB681A55EBE725
:105F50004023D6E7486870470868704738B504465C
:105F60000D46D0F8003E13F0080F3FD0D0F8CC3FDC
:105F700013F448730AD04A681A434A60C0F8C03F15
:105F8000D0F8C03F4B6B0BB110209847D4F8CC3FF2
:105F900013F4006F09D06B6843F400636B604FF437
:105FA0000063C4F8C03FD4F8C03FD4F8CC3F13F02E
:105FB000010F0DD0EB69002B52D1AB681BB1294604
:105FC0002046FFF773FF0123C4F8C03FD4F8C03F59
:105FD000D4F8CC3F13F0040F08D06B6B0BB140200A
:105FE00098470423C4F8C03FD4F8C03FD4F8003E1B
:105FF00013F0040F33D0D4F88C3F13F4A0630AD00D
:106000002A681A432A60C4F8803FD4F8803F6B6B3B
:106010000BB120209847D4F88C3F13F0010F24D106
:10602000D4F88C3F13F4007F0BD00022C4F8882FE3
:106030002B6823F001032B60EA626B6B0BB102202B
:106040009847D4F88C3F13F0100F08D06B6B0BB14E
:10605000802098471023C4F8803FD4F8803F38BD93
:1060600029462046FFF7C4FCADE729462046FFF746
:106070005FFC0123C4F8803FD4F8803FD0E70000E4
:10608000A0B9072931D8FF2A31D81C4B186883687A
:10609000B0F878C09C445CF8210020F47F401202E4
:1060A00092B202434CF8212000207047012801D011
:1060B000134870470F291CD8B2F5803F1BD20F4BF5
:1060C00018688368B0F87AC09C445CF8210020F41A
:1060D0007F0020F47F40130223F07F4323F0FF036F
:1060E00003434CF8213000207047054870470448AE
:1060F0007047034870470248704700BF642B000890
:1061000001004A00012800D901BE68B9072900D959
:1061100001BE0C4B1A689368B2F87820134453F808
:106120002100C0F3072070470F2900D901BE054B9D
:106130001A689368B2F87A20134453F82100C0F328
:106140000F207047642B000830B4022804D00328C5
:106150002DD02E4830BC704703294BD8B2F5803F74
:106160004AD21F2B4AD82A4C2568A868B5F87CC0AB
:1061700084445CF8210020F47F0020F47F40120268
:1061800022F07F4222F0FF0210434CF821002268E7
:106190009068B2F87C20104450F8212022F0F802D8
:1061A000DB00DBB2134340F821300020D2E739BBDB
:1061B000B2F1807F26D21F2B26D8154C2568A868FF
:1061C000B5F87EC084445CF82100C0B240EA0222E7
:1061D0004CF8212022689068B2F87E20104450F8D4
:1061E000212022F0F802DB00DBB2134340F821301B
:1061F0000846AFE70548ADE70448ABE70348A9E721
:106200000248A7E70148A5E70048A3E701004A00C4
:10621000642B000830B4A0F1020C5FFA8CFCBCF1D6
:10622000010F1AD901BE02281CD001B101BE1A4CBF
:106230002568A868B5F87E50284450F82100000A67
:10624000106020688268B0F87E00024452F8212075
:10625000C2F3C4021A6030BC7047002AE2D0002B9F
:10626000E1D1DFE7032900D901BE0B4C2568A868FE
:10627000B5F87C50284450F82100C0F30F2010607E
:1062800020688268B0F87C00024452F82120C2F3F2
:10629000C4021A60DFE700BF642B00081B4B1B68B9
:1062A00093F842C084452BD903292BD809B9072A72
:1062B0000ED9012905D0022906D0032907D0144898
:1062C00070470F2A04D9F6E7032A01D9F5E7DAB9AE
:1062D00000B593F875E001FA0EF14FF0030C0CFADB
:1062E0000EFC01EA0C0193F874C00CEA02029B68F0
:1062F000114300F5407043F8201000205DF804FBC6
:10630000034870470248704701487047642B0008F3
:1063100001004A00032836D808B907290ED90128F8
:1063200005D0022806D0032807D0194870470F2946
:1063300004D9F6E7032901D9F5E731BB10B5154BB0
:106340001A6892F877304FF0030E0EFA03F392F8C2
:1063500074C092F876400CFA04F4234392F8754026
:10636000A0400EFA04FE00EA0E0018430CEA0101F8
:106370009368084340F00040C3F800049368D3F8E2
:106380000034002010BD024870470148704700BF2C
:1063900001004A00642B0008032826D808B9072901
:1063A0000ED9012805D0022806D0032807D01148AD
:1063B00070470F2904D9F6E7032901D9F5E7B1B9E8
