:020000041000EA
:1000000000200008EB0000100D0000004D01001062
:1000100000000000000000000000000000000000E0
:100020000000000000000000000000004901001076
:10003000000000000000000049010010490100100C
:100040004901001049010010490100104901001048
:100050004901001049010010490100104901001038
:100060004901001049010010490100104901001028
:100070004901001049010010490100104901001018
:1000800010B5064C2378002B07D1054B002B02D06E
:10009000044800E000BF0123237010BDB003000836
:1000A0000000000014150010044B10B5002B03D005
:1000B0000349044800E000BF10BDC0460000000036
:1000C000B4030008141500100230800803D001307A
:1000D0000238FCD1C046C0467047EFF3108072B6BC
:1000E000704780F3108870477047FFF7FDFF72B6C6
:1000F0000F4C104DAC4209DA21686268A368043BDA
:1001000002DBC858D050FAE70C34F3E70A490B4A2F
:100110000020521A02DD043A8850FCDC08480949E4
:100120000860BFF34F8F00F0FFFE00F0AFFEFEE768
:100130002015001038150010B0030008C80500088D
:100140000000000808ED00E0FEE7FEE700B504202F
:100150007146084202D0EFF3098001E0EFF3088016
:10016000043000F093FCFEE7014B18607047C04676
:10017000C4050008044B1B681A00BA3212881B6AB7
:100180005043C0187047C046C40500081D4B984234
:100190000FD010D840282FD005D8002830D01028F4
:1001A00028D019481EE0802828D080235B00984280
:1001B000F7D1144816E0154B984214D008D8A02364
:1001C0001B0698421CD0124B9842EAD1A0200BE0AB
:1001D000104B98420AD0104B984209D00F4B9842CE
:1001E000DFD10F487047A420C003FBE70D48F9E7B3
:1001F0000D48F7E70D48F5E70D48F3E70D48F1E73F
:100200000020EFE706005200FF005200010000F05E
:10021000090000A0040000F0050000F0030000F059
:100220000100520002005200030052000100500081
:10023000020050000500520010B50020FFF79AFFA1
:100240000A4B1C682300BC331B68C0180368002BD2
:100250000ADB074B1868FFF799FF012263689A6071
:100260009A68002AFCD110BD0248FCE7C4050008CA
:10027000CC03000802005000064B1B68BC331B680F
:10028000C3181B68002B03DA89B241600020704755
:100290000148FCE7C405000801008A000368002B40
:1002A00004DA89B2C2608160002070470048FCE730
:1002B00001008A00064B1B68BC331B68C3181B680F
:1002C000002B03DAC36800200B6070470148FCE78D
:1002D000C405000801008A00024B1A68002A00D1F8
:1002E00018607047E0030008F0B52C246043154CFB
:1002F0001F0024681D0A2018FF2425402740124CA7
:100300001B0C26680760346A45608360BA363688FD
:1003100077433F1907612F0080376D017F01E7198F
:1003200064190A4D47611F043B436419236000238D
:100330008361059BC2610162002B01D01B88838110
:10034000F0BDC046E0030008C40500080810000026
:10035000F0B5836885B002AD2B80154B02681B6831
:10036000066A1B8F476A9B186B8043680095826AF8
:10037000C16A040003930369C068FFF7B5FF002159
:100380003B000A0000913000FFF7AEFF216B280010
:1003900000F030FB0022AB5E002B06DB1F22134077
:1003A0001E3A9A401300034A136005B0F0BDC046E0
:1003B000C405000800E100E0F7B52C25134C6843A4
:1003C000266869433418256901937118002D19D0E6
:1003D0008869002818D12E68002E15DA6768012474
:1003E00026004B689E40B44613689EB263461B04C9
:1003F0001E431660EA608C61BC40019BA4B24B6254
:10040000AC60FEBD0248FCE70248FAE7E0030008E2
:1004100004028A0007028A0073B5002642690400BC
:10042000D56801962B0CB34221D01B0413601368CE
:10043000194B00691B68BC331B68C3181B68B342A7
:1004400015DA01A9FFF736FFB0420CD10198E26935
:1004500003681E0CDBB29A4205D9226A9B009B58A6
:10046000002B00D0984731002069FFF705FFADB29F
:10047000002D09D063691D6000251B68636AAB42CB
:1004800005D098476562A56163691B6873BDA36A5F
:10049000002BF8D09847F6E7C40500082C2310B5C8
:1004A0004343034A1068C018FFF7B6FF10BDC046AB
:1004B000E0030008F8B5194B0F001B681A0033322F
:1004C0001278824227D9002925D01F250A681540B5
:1004D00021D11900BA310C88114E60431C6AD20830
:1004E000041929007868346000F07EFF290020009C
:1004F000FFF7C2FE3A0029003068FFF7CFFE041E66
:1005000007D101003068FFF7B7FE03002000002B81
:1005100000D00448F8BD0448FCE7C046C405000804
:10052000E403000801018A0003018A0010B5002AD3
:100530000DD1002914D10B4B1A681300BA331B8854
:100540005843136AC018084B1860080010BD0029F2
:1005500006D0064B196019005A60FFF7ABFFF5E7AC
:100560000348F3E7C4050008E40300087803000823
:1005700003018A00F7B5184F04003B680191DE685B
:100580003368834226D90025A94202D1FFF7A5FD91
:10059000050038680368002B1ADA1F220123224065
:1005A000934064097268A4001419226813420DD0A4
:1005B0009A43226000240021FFF75EFE019B002B7E
:1005C00002D12800FFF78DFD2000FEBD034CF2E7AD
:1005D000034CF3E7034CF7E7E4030008020188004B
:1005E0000301880004018A000A4B1B68DB681A6853
:1005F00082420DD959681F23420918401E3B83408F
:10060000920050581840431E9841034BC018704741
:100610000248FCE7E40300080001880004018A00A6
:10062000054B1B681A0088321B6812689B181868F3
:10063000000AC0B27047C046C4050008044B1B68DE
:100640001A0088321B6812689B181868000E7047E1
:10065000C4050008024B18694007C00F7047C04628
:1006600000002740A6220549D2008B580220DB4318
:100670009B0702D00123885818407047000026408D
:1006800010B5FFF7EFFF0023022801D1014B1B68D3
:10069000180010BDEC030008094A83009B18D02203
:1006A0009200985807221040042807D1C0229200D7
:1006B00098581F2303408020400018437047C046CD
:1006C0000000264010B5FFF7E7FF02281CD005D830
:1006D000002824D0012814D0002014E01223FF3376
:1006E000984214D01423FF33984215D0033B98420C
:1006F000F2D10C4A0C4BD358002BEDDA80200002CB
:1007000001E00A4B186810BDFFF7BAFFFBE7FFF7DF
:10071000A1FF0028E0D0F1E7024A054BEBE70548CE
:10072000F1E7C046000026400C050000E803000881
:100730003C05000000127A00B023154ADB00D358B4
:1007400010B59903DB01DB0F890BC371114B0160FD
:10075000D3580F24D904DB01DB0D0381B123DB0067
:10076000D358C90C81801900214081721909214098
:10077000C172D9029B009B0F8373074BC90CD358DE
:1007800081815A05DB01520FDB0D8271038210BD9E
:1007900000002640840500008C05000010B5104BB9
:1007A000421E1B683F331B78934216D97F221F24B9
:1007B0008030FF300B4B8000C3581A400A701A0C6F
:1007C0002240180A8A701A012040E2404870002036
:1007D0009B009B0FCA700B7110BD0348FCE7C0461D
:1007E000C40500080000264001004A00F0B589B0A9
:1007F00003AC14220021200000F0F6FD2000FFF7DA
:100800009BFFB0231A4ADB00D25800239A4203DA36
:10081000A37B023B5A1E9341E57900266A1E95414F
:100820000135B34221D0A488B4421ED0039B3000CE
:100830000193FFF747FF2A00330007003100200033
:1008400000F0BCFC0C0005003300019A31003800B8
:1008500000F0B4FCE6076A08324363088018594187
:100860002A00230000F08AFC0600300009B0F0BD29
:1008700000002640F0B50026244B85B01B68070019
:100880003F331B78B3423ED0B0423CD083423AD390
:100890000522310002A800F0A7FD02A93800FFF7E9
:1008A0007DFF3B008033FF33194A9B009B58B342C6
:1008B00029DA02AB1B79022B25D002AB5C78B4425B
:1008C00021D09D78B5421ED01B7838000193FFF7E8
:1008D000F9FE2A00330007003100200000F06EFC12
:1008E0000C0005003300019A3100380000F066FC6E
:1008F000E6076A0832436308801859412A0023003A
:1009000000F03CFC0600300005B0F0BDC405000856
:100910000000264010B5041E04D1FFF767FF002831
:1009200006D008E0064B1B683F331B78834203D296
:100930002000FFF7C7FE10BDFFF79CFFEFE7C046A2
:10094000C4050008E02210B50124094B8000920084
:10095000C018835880589B069B0F9C400F2318405B
:10096000FFF7D8FF63081818210000F07BFB10BDCB
:1009700000002640144B30B51A68072413002C33AE
:100980001B781F2B15D883081D00A5432C1E0FD1E3
:1009900003342040A040814012689B002032D318CD
:1009A0000A00FF2181401C686240114061401960CB
:1009B00030BD802320401B06184380239B01126812
:1009C000C91889008850F3E7C4050008064B9A68E7
:1009D0000300064810339B00824202D19858995078
:1009E0007047034AD058FBE700ED00E00000000824
:1009F00000000010F8B506000D0000283AD00023D2
:100A0000C05E002828DB7188FFF7B4FF0024FF22B6
:100A1000032794460023F05E716883B21F40FF00F5
:100A20006646BA4089013140D243B940002815DBFF
:100A3000114E83089B009B19C026B6009F593A406F
:100A4000114399510D4B9A680D4B9A4202D12900DE
:100A5000FFF7BCFF2000F8BD0A4CD8E70F26334053
:100A6000083B064E9B089B009B19DE6932401143F0
:100A7000D961E7E7034CEDE700E100E000ED00E0BD
:100A80000000000801005600FEE7000002680A4B63
:100A900010B51A6042685A6082689A60C268DA606B
:100AA00002691A6142695A6182699A61C269DA61AE
:100AB000FFF7EAFF10BDC04690030008B0235B05B6
:100AC0005A782120002A01D05878C0B27047B0234C
:100AD0005B059A89002A02D0988980B270478020ED
:100AE0004000FBE77FB5274B86000D00F458042932
:100AF00001D0012927D100200FE0A3682B420BD1A0
:100B0000E36829001A685B6802920193039302A8C4
:100B1000236898471C4B1C606469002C0BD01B4B4E
:100B20009842EAD1012DE8D1174B18481A68184BA2
:100B30009A5104B070BD012DFBD1144B9842F3D0F3
:100B4000134B9C51F5E7022906D10F4B1B68181E69
:100B5000EFD01C6903E01C006369002BFBD100206F
:100B6000002CE6D0A3682B4209D1E36829001A685B
:100B70005B6802920193039302A823689847246953
:100B8000EEE7C046300400082C040008FF004200D5
:100B9000180400081A4B1B68190088311A68096884
:100BA00051180968016219008C31096852181268DD
:100BB00042621A0046321278002A1FD09A68E03248
:100BC0001268D2061AD5F222DB68D2019A58026066
:100BD000F022D2019A5842600A4A9A5882600A4A20
:100BE0009A58C260094A9A580261094A9A58426161
:100BF000084A9A588261084A9B58C3617047C046A8
:100C0000C405000804780000087800000C78000093
:100C10001078000014780000187800001A4B1B6848
:100C20001A008832196812688A18016A11601A005D
:100C30008C32196812688A18416A11601A004632AB
:100C40001278002A1ED09A68E0321268D20619D5AE
:100C5000F0224168DB68D201995081680B4A9950B3
:100C6000C1680B4A995001690A4A995041690A4A78
:100C700099508169094A9950C169094A9950016896
:100C8000E83299507047C046C40500080478000057
:100C9000087800000C78000010780000147800003C
:100CA00018780000F7B50700FFF708FF664D06004B
:100CB0006B68002B00D07DE0FFF70FFA6B680090A7
:100CC000002B00D089E0614C22681300BA331988E8
:100CD00007234B43126A9B181A68002AFCDADB6868
:100CE000DA0021D51B0F1B0759480193FFF752FF6C
:100CF0005849212E00D075E02268902013008833D7
:100D00001C68136800011C1923680B40034323600F
:100D100013008C3312681B68D3181A6811400843FB
:100D200018604B4B019A13438022484E920531685C
:100D300013430A00BA321088072200244243096A8A
:100D40005218D36054605368FFF7C1FE80235B00E4
:100D500098425DD1380000F05BFB32681300BA3373
:100D6000198807234B43126A9B181A68002AFCDA79
:100D7000DF68FB0003D538010009FFF74FFF364B52
:100D800032681F401300BA33198807234B43126A95
:100D900000989B180022DF605A60FFF7A2F9002C30
:100DA0000FD16B68002B03D008210120FFF79AFEBA
:100DB0002000FEBD01210800FFF794FE041E00D1B3
:100DC0007AE76B68002B03D002210120FFF78AFE2F
:100DD000224B9C42ECD0224CEAE704210120FFF791
:100DE00081FE70E720688022030088331C68036856
:100DF00052001C1923680B401343236003008C33FB
:100E000000681B68C318186801400A431A6088E725
:100E100033681A00BC32196A126852181168002926
:100E200010DBBA331B889A181368002B0ADB0423E3
:100E30000C4A11690B431361012F01D030BF8CE7BD
:100E400020BF8AE7054C88E730040008C405000885
:100E5000F0030008FF00FFFFFFFFFFDF0500420077
:100E6000FF00420000ED00E0C02280200649520051
:100E70008B58C0059B009B0803438B5080238858E8
:100E80001B0603438B5070470000264010B562B626
:100E9000034800F0C1F80020FFF704FFFBE7C0465D
:100EA0000020001010B50020FFF7F8FA10BD7047C1
:100EB00010B50020FFF746FD041E25D0134B186027
:100EC000FFF7BCFB411C200000F0CCF8104B0400E5
:100ED0001860FFF7A5FB411C200000F0C3F80D4B84
:100EE000441E18600C49200000F0BCF8FA210B4B9E
:100EF000013018708900200000F0B4F8084B013070
:100F00001860084BC003186010BDC046840000087C
:100F1000880000088000000840420F00940000088C
:100F2000900000088C00000810B52048FFF71CF95D
:100F3000B022E02130201E4CD200A35889005B0073
:100F40005B08A35063588343635080235B04A35022
:100F5000184B194AE250A02204339201E250FF22BA
:100F6000164BE250FFF780FFC02201215200A35828
:100F70008B43A350FFF79BFFFFF79AFF104B032013
:100F80001A681300BA33198807234B43126A802169
:100F90009B180022DA605A600A4AFFF7C7FA0A482B
:100FA000FFF79AF90948FFF7D3F910BD2014001094
:100FB0000000264084050000010002008C050000AE
:100FC000C40500088003000844040008E014001071
:100FD0009023034A5B01D058032318407047C04652
:100FE0000000204010B59024FFF777F8074B64010C
:100FF0001A5907491140074A0A431A5110225968E1
:101000001142FCD0FFF76DF810BDC0460000204033
:10101000FCFF00000100FA05F8B590250E4C6D01AB
:101020000700FFF75AF863590600DB439B0701D11D
:10103000FFF7D8FF80239B00E7506359074A1A4007
:10104000074B13436351102362681A42FCD03000EF
:10105000FFF747F8F8BDC04600002040FCFF000045
:101060000300FA05002243088B4274D303098B4224
:101070005FD3030A8B4244D3030B8B4228D3030C68
:101080008B420DD3FF22090212BA030C8B4202D30A
:101090001212090265D0030B8B4219D300E0090A32
:1010A000C30B8B4201D3CB03C01A5241830B8B423B
:1010B00001D38B03C01A5241430B8B4201D34B0324
:1010C000C01A5241030B8B4201D30B03C01A524189
:1010D000C30A8B4201D3CB02C01A5241830A8B420E
:1010E00001D38B02C01A5241430A8B4201D34B02F7
:1010F000C01A5241030A8B4201D30B02C01A52415B
:10110000CDD2C3098B4201D3CB01C01A524183090E
:101110008B4201D38B01C01A524143098B4201D348
:101120004B01C01A524103098B4201D30B01C01A73
:101130005241C3088B4201D3CB00C01A52418308ED
:101140008B4201D38B00C01A524143088B4201D31A
:101150004B00C01A5241411A00D20146524110467A
:101160007047FFE701B5002000F006F802BDC04659
:101170000029F7D076E770477047C046002B11D1A1
:10118000002A0FD1002900D1002802D00021C94334
:10119000081C07B4024802A14018029003BDC046D3
:1011A000D9FFFFFF03B4684601B5029800F030F89C
:1011B000019B9E4602B00CBC7047C046F0B5CE46BF
:1011C000474615042D0C2E0080B50704140C3F0C67
:1011D0009946030C7E435D43674363437F19340C98
:1011E000E4199C46A54203D980235B029846C44477
:1011F0004B4643435143250C36046544360C2404C6
:10120000A4195B19591820000CBC90469946F0BDF2
:10121000F0B54F464646D646C0B5040082B00D0034
:10122000914698468B422FD82CD04146484600F034
:10123000CFF829000600200000F0CAF8331A9C46B7
:10124000203B9A4600D576E04B46524693401F001D
:101250004B46624693401E00AF4228D825D05346E5
:10126000A41BBD41002B00DA7BE00022002300928A
:101270000193012352469340019301236246934018
:10128000009318E08242D0D90022002300920193FB
:101290000A9B002B01D01C605D600098019902B090
:1012A0001CBC90469946A246F0BDA342D7D9002265
:1012B0000023009201936346002BE9D0FB07984678
:1012C000414672080A437B0866460EE0AB4201D1F4
:1012D000A2420CD8A41A9D41012024196D4100217D
:1012E000013E24184D41002E06D0AB42EED9013EFE
:1012F00024196D41002EF8D1009801995346001928
:101300006941002B23DB2B005246D3402A00644660
:10131000E2401C0053461500002B2DDB26005746EB
:10132000BE40330026006746BE403200801A994115
:1013300000900191ACE7624620239B1A4A46DA40AE
:101340006146130042468A4017001F4380E7624609
:1013500020239B1A2A0066469A402300F340134339
:10136000D4E76246202300219B1A002200910192BB
:101370000122DA40019280E72023624626009B1A70
:10138000DE402F00B0466646B74046463B0033433A
:10139000C8E7C0461C2101231B04984201D3000C5E
:1013A00010391B0A984201D3000A08391B099842D8
:1013B00001D30009043902A2105C40187047C046EE
:1013C000040302020101010100000000000000000E
:1013D00010B5002903D1FFF7DDFF203002E0081C23
:1013E000FFF7D8FF10BDC04603001218934200D18A
:1013F000704719700133F9E7F8B5C046F8BC08BC6E
:101400009E467047F8B5C046F8BC08BC9E4670477B
:1014100001B40248844601BC604700BF6102000875
:1014200000002040000024400000004000000000B8
:1014300000002340000030400000314000009F4089
:10144000000022400000104000009D40202020208D
:1014500020101010101D1D8017007500FF030602DC
:1014600006003604102000007FC0000000040000C9
:10147000000000000019324B647D00000000008075
:101480004000080B100000000000FF012002001FB8
:1014900000800004FF081018001000140018001C41
:1014A0004044484C500000000810000008000000B4
:1014B00004000000041000000012000004210000DD
:1014C000002100000016000040114002C413001368
:1014D0008013A01340138813A81320001C000000E1
:1014E00003000000010000000100000000000000F7
:1014F000050360000400000001000000000000007F
:10150000010000000604600008000000A4050008B7
:10151000A50E001000000000F8FCFF7F0100000095
:1015200000000010000000088000000040150010BE
:1015300080000008F8020000B00300081802000054
:1015400000093D0000127A0000093D000000D007AC
:10155000A00F000004000000A9000010810000108E
:1015600080B230B5C00020D0104B07221C68230089
:10157000BA331B885A43236AD31819680029FCDA46
:101580003E210B4B062519600A4B0B491960A3211C
:101590000A4BC9005D500A4958505858206A121821
:1015A000002050605A58002AFCDA30BDC4050008FB
:1015B00004012640080126401E1F000000002640AE
:1015C0001C05000010B54378FF2B11D100F0ECF89A
:1015D0000400032000F0F8F8C3685A68012311687A
:1015E0001943116011681942FCD1200000F00CF978
:1015F00010BDF7B500900020019100F0E5F83F4DD7
:1016000006002B681A005033BC3214681B7804198A
:10161000002B5AD000F0E0F8070003281BD000F0A0
:10162000C3F8374A374B0500D358002B3EDA364A09
:101630000121300000F0F0F8002837D10198FFF7C1
:101640008FFF009B002B3ED02368002BFCDB00F0BB
:10165000B3F804002BE0062000F0B6F82B68BC338A
:101660001B68C0180368002B02DA284C2000FEBD5E
:10167000002000F0B9F8264B9842F6D00023254A06
:1016800019001268012000F0B7F80025A842ECD13B
:10169000002000F0A9F81E4A1F4B904203D09D4243
:1016A000E3D00135F4E79D42B9D1DEE7174C032FB3
:1016B00005D10121002000F0B7F80028F9D1280059
:1016C00000F0A2F8D2E7154CF1E700F06DF80E4AF1
:1016D00005000121300000F09FF8002809D1009B8F
:1016E000002B08D02368002BFCDB00F065F8040019
:1016F000E5E7064CE3E7094CE1E7C046C40500080E
:10170000000026401C050000CC0300080500520024
:1017100001018800DC030008F049020001005000CC
:10172000184BF7B51B68184A5C68042311690B4312
:101730001361012824D030BF2300FC331B69002B28
:101740001DD1A320114B1249124AC0000F681E5828
:1017500015680195104D0D6006251D503E20106046
:101760000E483E351D501D58002DFCDA0C48FC3447
:1017700020610F60A321C9005E50019B1360F7BD7B
:1017800020BFD9E7C405000800ED00E000002640B6
:1017900008012640040126401E1F00001C05000011
:1017A000AAAAAAAA0000000001B40248844601BC0B
:1017B000604700BFDB00001001B40248844601BC52
:1017C000604700BF3902001001B40248844601BCE2
:1017D000604700BF7501001001B40248844601BC97
:1017E000604700BFD10F001001B40248844601BC1D
:1017F000604700BFE905001001B40248844601BCFF
:10180000604700BFB903001001B40248844601BC20
:10181000604700BFE300001001B40248844601BCE9
:10182000604700BF9D02001001B40248844601BC1D
:10183000604700BF750500100000000000000000B8
:101840000000000000000000000000000000000098
:1020000000F80F08252300100D0000009923001090
:10201000992300109923001099230010000000005C
:1020200000000000000000000000000095230010E8
:102030009523001000000000952300109523001048
:102040009523001095230010952300109523001070
:102050009523001095230010952300109523001060
:102060009523001095230010952300109523001050
:102070009523001095230010952300109523001040
:1022E00010B5054C237833B9044B13B10448AFF350
:1022F00000800123237010BD542800080000000056
:10230000589A001008B5034B1BB103490348AFF3BB
:10231000008008BD0000000058280008589A0010EE
:1023200070477047FFF7FCFF72B6144C144DAC4277
:1023300009DA21686268A368043BA2BFC858D0507C
:10234000FAE70C34F3E70F490F4A00209142BCBF73
:1023500041F8040BFAE70D480D490860BFF34F8FB1
:1023600000F03AFA00F01EFAFFF7DBFF05F02EFF4F
:1023700000F0A6FA05F016FFFEE70000649A0010D0
:102380007C9A001054280008F82C0008002000084F
:1023900008ED00E0FEE7FEE700B5042071460842C4
:1023A00002D0EFF3098001E0EFF30880043004F07D
:1023B00035FFFEE708B500F0A9F800F007F800F0D7
:1023C0009BF800F017F800F01DF808BD08B50021D3
:1023D000084603F05DFFFF220021084603F0CCFD14
:1023E0000021084603F012FF014800F06DFE08BD11
:1023F000888D001008B5002211462F2003F0CAFE78
:1024000008BD000010B5264C264A0021204602F0E7
:102410006BFE254800F058FE244A0121204602F0B8
:1024200063FE234800F050FE224800F04DFE04F504
:102430004074214A0421204602F056FE1F4800F055
:1024400043FE1F4A0621204602F04EFE1D4800F0C2
:102450003BFE1D4A0721204602F046FE1B4800F0C5
:1024600033FE1B4800F030FE1A4800F02DFE1A48DB
:1024700000F02AFE194800F027FE194800F024FE5B
:10248000184800F021FE184800F01EFE174800F022
:102490001BFE174800F018FE164800F015FE10BD90
:1024A00000003140608E0010948E0010988E001055
:1024B000CC8E0010B48D0010288E00105C8E0010A1
:1024C000F08D0010248E0010B88D0010EC8D0010DF
:1024D0008C8D0010908D0010948D0010988D001040
:1024E0009C8D0010A08D0010A48D0010A88D0010F0
:1024F000AC8D0010B08D0010024B33229A601A612F
:10250000704700BF00203040FEE7000030B583B0C8
:102510009621002004F0D4FE04F064FEC0B9734B91
:10252000D3F8004F04F03F0404F04CFE30B101201A
:1025300004F03EFE6E4B9B6C002B24DB6B4BC3F810
:10254000004F04F067F804F05BF8012004F076F81F
:10255000012005F0C5F905F06BF905F045FA05F025
:102560002FFA0021084603F0F3FF002003F05EFF7E
:10257000012003F043FF002003F006FF5D4B1B68C2
:1025800093F83F4006E00620FFF7BEFF204604F028
:1025900079FA013C002CF9D10021012004F082F8E5
:1025A000002003F0C3FF002800F0848004F02EF91F
:1025B0000021084604F076F80021084603F096FF53
:1025C0004D4D00240094234622462146284602F021
:1025D0009FFC0094234622460121284602F098FCE5
:1025E000464803F0EFFF002870D1012003F0F6FE0B
:1025F000002003F01BFF002003F000FF002003F089
:10260000C3FE0021012004F04DF80021084604F02B
:1026100049F80021022004F045F80021032004F0CD
:1026200041F80021042004F03DF80021052004F0C9
:1026300039F8334804F004F900284AD1314804F04D
:10264000AFF9002848D10021084603F04FFF0021D0
:10265000084603F07DFF2C49012004F039FA0028D8
:102660003DD142F21071012004F0C0FA002839D1A6
:10267000002003F0A3FE03F0C3FF012003F0DEFF00
:102680006421002004F01CFE00F052F81F4800F006
:102690001BFD1F4800F018FD1E4800F015FD1E48E8
:1026A00000F012FD1D4800F00FFD1D4800F00CFD6C
:1026B00003B030BD04F024F840F2111398427FF4C7
:1026C00075AF0121002003F011FF6FE70520FFF730
:1026D0001BFF0420FFF718FF0420FFF715FF03205E
:1026E000FFF712FF0320FFF70FFF00BF00F02740A6
:1026F00000002740E42B00080000314040420F005A
:10270000D08E0010400D0300FC8E0010E48E0010EF
:10271000E88E0010EC8E0010F08E0010F48E001089
:10272000F88E001008B5012002F012FF08BD7047B6
:1027300010B5002004F064FC00B910BD0446114B34
:10274000186003F069FE0130B4FBF0F00E4B186026
:1027500003F07AFE0130B4FBF0F40C4B1C60013C3A
:102760000B4BA3FB04239B0C01330A4A13700A4B47
:10277000A3FB04239B090133084A1360DB03084AC7
:102780001360DAE7E4220008E8220008E0220008EB
:1027900083DE1B43F4220008D34D6210F0220008B0
:1027A000EC22000808B5094802F0E4FAFFF7BFFF81
:1027B000FFF7BEFF00221146032002F01FFF04486E
:1027C00002F07CFD034802F0D1FD08BD2099001005
:1027D00070280008048F001008B500F026F9074A99
:1027E000D2F8883043F47003C2F88830BFF34F8FBB
:1027F000BFF36F8F00F01DF908BD00BF00ED00E0D2
:1028000008B5044804F0DEFE08B1002008BD024807
:10281000FCE700BFF82200080000020610B500F037
:1028200051FC044628B144B1FFF7C4FD5CB1204619
:1028300010BD01F06DF90446F5E740F6E4410020D3
:1028400001F0AEF9F0E7FFF7DBFF0446EFE7000029
:10285000014B01221A7070472C2A000830B587B04E
:10286000144B0FCB06AC04E90F000022FF211248E5
:1028700001F0AAFC00B101BE0F4C02A9204601F0F4
:10288000FDFC42F21071204601F00AFC04F108053B
:1028900000220A49284601F081FA0122009207230A
:1028A0002946606801F0BEFA204601F0B7FC07B087
:1028B00030BD00BFA88F0010F82900085128001073
:1028C00010B5FFF7ABFF00B101BE62B64FF4E132C5
:1028D0002821292005F06EFA00B101BE012306224D
:1028E00019466F2000F012FB00B101BEFFF7B6FFE2
:1028F00042F2107412E03C4B1B78002B46D03B4850
:1029000001F0A4FC3A4805F009FD374A137883F03A
:1029100001031370374B1B78002B58D10122364925
:10292000364802F037F80028F4D1334B1B78413B8E
:10293000132BEFD801A252F823F000BF9B290010FF
:10294000B1290010152900101529001015290010B3
:10295000152900101529001015290010C72900108D
:10296000152900101529001015290010152900102F
:10297000152900101529001015290010152900101F
:102980001529001015290010F7280010174801F02C
:1029900045FC1B4805F0C2FCB7E71A4805F0BEFC31
:1029A00042F21071114801F07BFB42F21074B1E762
:1029B000154805F0B3FC04F51C54103421460B48AF
:1029C00001F06EFBA6E7114805F0A8FCA2E7094B51
:1029D00000221A700E4B1B689869072100F5D06021
:1029E00002F006FB9AE700BF14230008F82900084C
:1029F000388F00102C2A00082D2A00083C2C0008D3
:102A0000508F0010688F0010848F0010A08F00106E
:102A1000E42B0008000000000230800803D00130E1
:102A20000238FCD100BF00BF7047EFF3108072B6D0
:102A3000704780F31088704701BE0148704700BF9F
:102A400002020204024B0B6009231360002070474E
:102A50005C23000808B5407804F0D2FA08BD0000F5
:102A600038B5054614468A4294BF002301238342A9
:102A700009D080F001038A422CBF002101218B4242
:102A800001D04DB138BD04F0CDFE0549A1FB0431A4
:102A9000890C04F015FCF4E7FFF74AFEF2E700BFEB
:102AA00083DE1B432DE9F04104460A78A2F10D03B1
:102AB000DBB2012B04D90F2A2FD14E78013600E06A
:102AC0004E78002003F064FD0746002003F02EFD41
:102AD00004F076FA20FA07F8304604F071FA20FA8A
:102AE00007F763786BB1F1B2607803F0FFFC05463D
:102AF00063789BB958B93A4641460020FFF7B0FFCA
:102B00000CE03A4641460120FFF7AAFFEBE74246B8
:102B100039460020FFF7A4FF00E0024D2846BDE83B
:102B2000F08100BF01020204F8B50546013907290A
:102B300035D8DFE801F00426340634343424002686
:102B400000E00226002003F023FD0746002003F0EA
:102B5000EDFC04F035FA20FA07F720FA06F46B785A
:102B60008BB13146687803F0F3FC06466B78BBB94D
:102B700078B9224639460020FFF772FF10E003269D
:102B8000E0E70126DEE7224639460120FFF768FF2D
:102B9000E7E73A4621460020FFF762FF00E0014EDA
:102BA0003046F8BD0002020408B519B1407803F0C0
:102BB00057FC08BD407803F07DFCFAE708B5407883
:102BC00003F066FC08BD000038B51C46049D0123D7
:102BD00003FA02F200EB5103B3FBF1F32B609342D3
:102BE00000D92A6074B12A68B0FBF2F2207801F0B3
:102BF000F7FF0028B8BF404234B16368834205D371
:102C0000002038BD0020F7E70020FAE70048F8E789
:102C10000002020408B590F800C01CF0020F06D1B3
:102C20004A1E41780CF0030003F0A6F908BD00230A
:102C30004A1E41780CF0030003F002FAF6E770B583
:102C400084B004460D46164604F0EAF9237813F0E2
:102C5000020F0CD0022B1FD01D2203AB0093334672
:102C600029464001FFF7B0FFC0B104B070BD8BB979
:102C7000082203AB009333462946FFF7A5FF00283F
:102C8000F3D12078039A013A617800F0030003F051
:102C900073F9EAE71022ECE71522DEE7039B5A09F5
:102CA000207803F01F03013A617800F0030003F07D
:102CB000C7F9DAE708B50378417803F0030004F0B8
:102CC000C8F908BD08B531B10378417803F00300B5
:102CD00003F09CFA08BD0378417803F0030003F089
:102CE000D7FAF7E708B50378417803F0030003F05B
:102CF00001FB08BD00487047389700102DE9F041EE
:102D000082B007460D469046084601F09BFFC6B2CA
:102D1000002401E00134E4B2B44213D205238DF85B
:102D200004308DF805508DF8064001A800F0CCF96C
:102D300003460028EED13D707C700122BA70C7F8BE
:102D4000048000E0024B184602B0BDE8F08100BFED
:102D5000020D020430B583B00C46054678B184B14B
:102D600005238DF8043023788DF8053063788DF8CD
:102D7000063001A800F0A8F928B103B030BD01BEAB
:102D8000EDE701BEECE7226863682A606B6001230F
:102D9000AB70F2E708B5034648B11A78122A08D09A
:102DA000032A0AD95A6812681846904708BD01BE1E
:102DB000F3E71846FFF702FFF8E71846FFF792FF20
:102DC000F4E710B5034648B11878122808D0032854
:102DD0000AD9586844681846A04710BD01BEF3E7F9
:102DE0001846FFF7E1FEF8E71846FFF76BFFF4E738
:102DF00010B5044668B12046FFF7CCFF98B12378A0
:102E0000122B08D0032B0AD963689B682046984789
:102E10000AE001BEEFE72046FFF71CFE04E0204673
:102E2000FFF748FF00E0002010BD10B5034648B191
:102E30001878122808D003280AD95868C468184698
:102E4000A04710BD01BEF3E71846FFF7F5FDF8E710
:102E50001846FFF7F4FEF4E708B5034648B11A78C0
:102E6000122A08D0032A0AD95A68126918469047CC
:102E700008BD01BEF3E71846FFF756FEF8E718460F
:102E8000FFF7C8FEF4E710B582B0044690B1A3780E
:102E900003B901BE05238DF8043023788DF8053081
:102EA00063788DF8063001A800F052F90023A37072
:102EB00002B010BD01BEEAE708281CD8DFE800F028
:102EC0000923051E0B0D0F1113000A20012917D02D
:102ED0007047082070470C20F8E70D20F6E70E2019
:102EE000F4E70F20F2E74B1EDBB2012B01D90820DB
:102EF000ECE70E20EAE701BE0820E7E70B20E5E754
:102F000000F0070070470020E2E700002DE9F043E1
:102F100087B0884617461E460B238DF808304FEAC7
:102F2000D0098DF8099000F007048DF80A40029B43
:102F3000ADF814301B0C8DF81630059DADF810500F
:102F40002D0C8DF81250049DADF80C502D0C8DF801
:102F50000E5003A800F0B8F8054618B1284607B08F
:102F6000BDE8F08341463846FFF7A6FF0246B9F1B7
:102F70000E0F0BD8074B1B68986900EBC910002394
:102F800000933346214601F0C3FFE7E7014B1B687E
:102F90009869F4E7E42B000870B504280DD00D46BD
:102FA000114602463B4C34F810E0441C1D2C07D857
:102FB000E4B2384E36F8144004E00D250520F0E761
:102FC00040F231144FF0010C0CFA02FC324A0CEAC8
:102FD00002023AB9AE44A3F800E01B88A34257D2DC
:102FE000002070BDC21E182A32D8DFE802F00D3171
:102FF0003431310F25312931313131312B312D31FE
:1030000031313131312F2700244A00E0244A1C801D
:10301000002AE2D00338182835D8DFE800F01E3443
:103020003734341E2E343034343434341E341E34A9
:103030003434343434321E001A4AE8E71A4AE6E7D8
:103040001A4AE4E71A4AE2E71A4AE0E71A4ADEE7D0
:1030500001BE0022DBE7194AD9E70126B542BCD2FE
:10306000505D704411FA80F11980691CB142B4DAE4
:103070002A4454787444A4B2AFE70226EEE710263F
:10308000ECE70226EAE701BE0026E7E71A26E5E7B5
:103090000B48A6E7C0970010280B0A0C7897001081
:1030A000989700109C970010BC970010A0970010F4
:1030B000B0970010B4970010B89700107C970010DC
:1030C000000D020400207047F0B583B004460027CD
:1030D000FFF7ABFC06460DF10603A2786178207875
:1030E000FFF75AFF054668B9BDF80630C3F3C702BB
:1030F00003F007031449895C012202FA03F3194221
:1031000018BF174605B9EFB92DB13046FFF791FC4E
:10311000284603B0F0BD0DF10603A278617820784F
:10312000FFF73AFF05460028EFD1BDF80630C3F39C
:10313000C70103F00703044801229A40435C13438C
:103140004354E2E7014DE0E7302A0008010D020494
:1031500030B583B00446FFF768FC05460DF1060361
:10316000A27861782078FFF717FF024660B9BDF8B2
:103170000630C3F3C70003F00703074C0121994051
:10318000235C23EA0103235402B101BE2846FFF762
:1031900050FC03B030BD00BF302A00082DE9F04FCD
:1031A00085B080460F46924601935A4B33F8102063
:1031B000431C1D2B12D8DBB2564931F81390012362
:1031C00003FA08F3DFF878B103EA0B0BA9EB020965
:1031D0001FFA89F900252E462C4617E040F23119D6
:1031E000EDE70123BAF1000F08D031462046019BDC
:1031F00098479AF8001000F092F90346B3B9BBF172
:10320000000F25D10134E4B20135ADB24D457BD27A
:10321000002FE6D0314620460E9B9847014638885D
:1032200000F07DF903460028E8D0DBE78DF80C803C
:103230008DF80D408DF80E6003A8FFF745FF03469B
:103240000028DCD10F9A82F80080547096705CE000
:10325000A8F10303182B30D8DFE803F00D2F322F2D
:103260002F0F232F272F2F2F2F2F292F2B2F2F2FAC
:103270002F2F2F2D2500284A00E0284AA8F103030C
:10328000182B31D8DFE803F01E303330301E2A30DF
:103290002C30303030301E301E3030303030302E58
:1032A0001E001F4AEAE71F4AE8E71F4AE6E71F4AEF
:1032B000E4E71F4AE2E71F4AE0E701BE0022DDE73C
:1032C0001D4ADBE70123611C994204DA1119487891
:1032D000691C88420DDD0136F6B295E70223F2E75C
:1032E0001023F0E70223EEE701BE0023EBE71A23E9
:1032F000E9E70134E4B29C4204D2115DA942F8D955
:10330000002681E700267FE70C4B184605B0BDE894
:10331000F08F00BFC09700107897001098970010AA
:103320009C970010BC970010A0970010B097001059
:10333000B4970010B89700107C970010020D02049B
:10334000280B0A0C00B583B00191002100910B46B7
:103350000A46FFF723FF03B05DF804FB002001E0FD
:103360000130C0B2102805D8044B1B5C002BF7D0ED
:1033700040B270474FF0FF30704700BF4C910010D3
:1033800038B504460D46FFF7E9FF114B1B5D83B1CD
:10339000104B1A689368B2F870100B44201A103062
:1033A000B2F8721001FB00F000EB8501C858C0B202
:1033B00038BD084B1A689368B2F870100B44B2F825
:1033C000720004FB00F000EB8500C058EFE700BF7F
:1033D0004C910010E42B000810B584469DF808E0DD
:1033E0009DF80C40174810F80C0080B1ACEB0101BF
:1033F00043EA012040F0804040F4805024B17246FE
:10340000002104F015FC17E004F060FC14E042EA2F
:103410000C2043EA0C2141F0804174B90A4A11683A
:103420008A68B1F870000244B1F8721001FB0CF127
:1034300001EB83010020885010BD7346002204F088
:103440009BFBF9E74C910010E42B00082DE9F047B5
:1034500082B00C469046C0F3470600F00107FFF724
:103460007DFF8146244B1D5D1B57002B04DB234B46
:1034700013F804A0002416E005F07F0555FA80F546
:10348000EDB2F4E7B8F1010F14BF0023012301935B
:1034900000975346E2B25FFA89F12846FFF79CFF96
:1034A00022E00134A4B22A46154B33F81530A3426A
:1034B00019D9144B53F825301B5DB342F1D1124B8F
:1034C0009B5C1BB11FFA8AF3A34210D1B8F1020F23
:1034D00004D051462846FFF753FF50B9B8F1000F0A
:1034E000D0D1002000E0094802B0BDE8F0870748CD
:1034F000FAE70748F8E700BFE09000105896001080
:10350000C4960010182300084C910010010C02040E
:10351000000C020408B50222FFF798FF08BD08B5A9
:103520000022FFF793FFB0FA80F0400908BD0000C9
:1035300070B582B00D468378772B16D8DA08134918
:1035400009688E6906EBC216C27803F00704009280
:1035500001232A462146304601F0DAFC0A2D08D024
:103560000B2D0CD0002002B070BD084A126896697D
:10357000EAE701222146304601F024FDF2E700226D
:103580002146304601F01EFDECE700BFE42B0008A9
:1035900010B582B00146772810D8C308094A1268CE
:1035A000906900EBC310002400940123082201F06D
:1035B000070101F0ADFC204602B010BD014B1B68B5
:1035C0009869F0E7E42B0008123820282AD8DFE8B1
:1035D00000F01F29292929292929292929292929C7
:1035E00029292929292929112C131517191B1D21CE
:1035F00023252700002070470220704703207047D2
:103600000420704705207047062070470720704748
:1036100008207047092070470A2070470B20704728
:103620000C20704701BE0020704701207047000049
:1036300038B50346084850F82340084850F823504E
:1036400044B12DB1002318460BB92046A84738BD18
:103650000123F8E70123F6E78C2A0008582A00081E
:103660002DE9F04105468846084601F0A0FA0646D5
:103670000024012718E0022229463046FFF7D8FF30
:103680000136F6B2B442F6D8B8F1020F1BD0B8F149
:10369000080F18D0B8F1010F18D1BFB10D4B01229E
:1036A0001A7013E00134E4B20C2CEDD832462946EE
:1036B0002046FFF7BDFF07460028F3D1B8F1010F00
:1036C000F0D10026DEE7034B00221A703846BDE831
:1036D000F08100BF572A000808B5EFF305801038C5
:1036E00000B2FFF771FF024B53F8200008BD00BF86
:1036F0008C2A00082DE9F04383B080460E46174619
:103700009946002416E099F802206B789A4201D07D
:10371000002325E0012323E017238DF80430735C98
:103720008DF805306B788DF8063001A8FFF7CCFCDA
:10373000C8B10134BC421AD2A10006EB840595F849
:1037400002C0C445F5D1B9F1000FE5D099F80030B9
:10375000172BE1D199F80120735C9A42D3D0002352
:10376000002BE6D004E001A8FFF7F2FC00E0002502
:10377000284603B0BDE8F0832DE9F04383B0074647
:103780000D4616460024A14600E00134B44220D282
:103790004FEA840805EB840393F802C0BC45F4D1DA
:1037A00017228DF8042015F824208DF805205B7869
:1037B0008DF8063001A8FFF787FC0028E5D101A8A5
:1037C000FFF7C6FC15F808200123934049EA0309D6
:1037D000DBE7484603B0BDE8F0830000014B1878F2
:1037E000704700BF572A000808B5124B43F8201055
:1037F000114B43F8202000231A4601E00133DBB2CD
:103800000C2B08D80B4850F823000028F6D0012ACA
:1038100007D00132F2E72AB901B101BE074800F032
:103820006BF908BD012AFCD10029FAD0034800F049
:1038300057F9F6E78C2A0008582A00088023000868
:103840002DE9F0410446884616461F4604E0012251
:1038500088F80020E2B1E46840F28975AC4217D0E4
:103860002568002DF7D094F804C036EA0C03F2D195
:10387000637937EA0303EED0A26839463046A84799
:103880000028E4D1012F01D00122E1E70022DFE787
:103890002046BDE8F08170B504460D46164600E0AE
:1038A000E468AC420FD02368002BF9D0217936EAC6
:1038B0000102F5D1627912F0020FF1D1A268022162
:1038C00030469847ECE770BD38B505460C46FFF723
:1038D000ACF8E36813B1FFF7ACF838BD2B68E360D0
:1038E0002C60F8E738B504460D46FFF79EF801E076
:1038F00003F10C04236840F28972934205D0AB4275
:10390000F6D1EB6823600023EB60FFF792F838BD37
:103910002DE9F04182B00D4601F055F9044601232E
:103920008DF80730022806D0082804D01A4B1E68EC
:103930001A4B1F6803E0184B1F68184B1E6823467C
:103940002A460DF107013846FFF77AFF80469DF8B9
:10395000073063B930469DF807300BB9012C0ED003
:103960009DF80730B3B1002002B0BDE8F0812346D6
:103970002A460DF107013046FFF762FFEBE72A46C2
:1039800001463046FFF787FF2A4641463846FFF793
:1039900082FFE5E70248E7E7942300089023000848
:1039A000FF00420038B50C4610212046FFF7B0FF5B
:1039B0000546042C01D0284638BD002003F020FB2A
:1039C0000349A1FB0031890C012003F079FCF2E7E7
:1039D00083DE1B4338B50C4608212046FFF798FFCD
:1039E0000546082C01D0284638BD002003F008FB0E
:1039F0000349A1FB0031890C002003F061FCF2E7D0
:103A000083DE1B4308B508460421FFF781FF08BD8C
:103A100010B50446FFF77CFF042C02D0082C17D009
:103A200010BD4FF0E0231B6913F0010F04D00E4BC3
:103A30001B7813B1012300E000230C4A1370002B04
:103A4000EED04FF0E022136923F001031361E7E7A2
:103A5000064B1B78002BE3D04FF0E022136943F0B4
:103A600001031361DCE700BFC22A00085C2B0008D9
:103A700008B50846012902D1044B1B881BB9022155
:103A8000FFF7C6FF08BD0248FCE700BFC02A0008D8
:103A9000FF00420008B508460121FFF7B9FF08BD45
:103AA00038B584468E4615460C4C0FCCCCF8000039
:103AB000CCF80410CCF80820CCF80C3007CCCCF8AB
:103AC0001000CCF81410CCF81820CCF800508CF86A
:103AD00004E0604603F076FD38BD00BF4C9800104E
:103AE00008B5014618B10348FFF7EEFE08BD01BE58
:103AF000F9E700BF9423000808B5014618B1034850
:103B0000FFF7F0FE08BD01BEF9E700BF94230008EF
:103B100008B503F04DFF38B9164A00211648FFF7E3
:103B2000BFFF20B9154808BD03F096FDF4E7144A1D
:103B300001211448FFF7B4FF08B91048F3E7124A0F
:103B400002211248FFF7ACFF08B90C48EBE7104A16
:103B500003211048FFF7A4FF08B90848E3E70E4A1D
:103B600004210E48FFF79CFF08B10020DBE7034863
:103B7000D9E700BF953A00103C2B00080119020458
:103B8000713A0010CC2A0008053A0010E82A000813
:103B9000D5390010202B0008A5390010042B00088F
:103BA000024600B101BE024B43F82210704700BF2D
:103BB000582B000800231F2B06D8054A52F8232053
:103BC00022B90133DBB2F6E70020704701207047CD
:103BD000602B0008022906D008295ED0012953D0A5
:103BE00001BE01207047334B00221A70012070473C
:103BF0000133DBB2304A02EB0112127B9A420DD93B
:103C00002D4A02EB0112527B1A442C4D55F822200A
:103C1000002AEDD001229A401043E9E700B1A060EC
:103C20000CF1010C5FFA8CFCBCF1010F07D8614666
:103C30004FEA0C13204AD45800231846DAE71D4BEC
:103C400000221A70012030BC70470133DBB21A4ADF
:103C500002EB0012127B9A4213D9174A02EB0012B0
:103C6000527B1A44154951F82220002AEDD05168A0
:103C7000927A043201EB82125268002AE5DA0020BF
:103C800070470130C0B200E00020012801D80023B5
:103C9000DDE70120074B187070474FF0000CBCF1B6
:103CA000010F01D830B4C2E7024B00221A70012084
:103CB000704700BFE02B000868980010602B0008D8
:103CC00070B5EFF30582103A90B212B2002301E012
:103CD0000133DBB2012B11D8184901EB0311897BA9
:103CE0008A42F5DB154C04EB031C9CF80CC08C4499
:103CF0006245EDDAC0B2411AC9B200E00021012BE1
:103D000001D901BE70BD0D4A180102EB031314580E
:103D10000E4604EB8112D2F83C515B7B1944084BF0
:103D200053F82120D36913B12946106A984704EB50
:103D30008614C4F83051D4F83031E3E768980010A5
:103D4000602B0008014B1878704700BFE02B00087B
:103D500010B50446002307E003F1100204EB420211
:103D6000002191800133DBB2042BF5D9FFF722FF4C
:103D700050B1627A064B03EB02135B7BA27A1344C9
:103D8000044A42F8234010BD0348FFF7A9FEF0E7BC
:103D900068980010602B0008982300082DE9F04176
:103DA00082B005468846174643781A4E06EB031341
:103DB0005C7B83781C44E4B2FEF737FE164B53F865
:103DC0002430C3F81C801F62FEF733FE6B7806EBCD
:103DD00003139C7BAB78E5186A09104B53F822302B
:103DE00005F01F02D34013F0010F10D1ADF80050C1
:103DF000072301930A49684603F08EF905F01F0373
:103E00006C09012202FA03F3044A42F8243002B09A
:103E1000BDE8F08168980010602B000800E100E028
:103E2000C13C001030B58C469DF80C4091F802E082
:103E300000EB8E11D1F838113CB122EA010500EBFC
:103E40008E1ECEF83051DEF830519CF802E0B4B14D
:103E5000114300EB8E10C0F838119CF80110094A8C
:103E600002EB0112927B9CF802100A445901C9B27C
:103E700002F1604303F5614383F8001330BD21EA8A
:103E80000201E6E76898001010B94731C8B27047E0
:103E9000012800D001BE5531C8B2704770B5044644
:103EA0000E461546407AA27A042D00F28580DFE89E
:103EB00005F003273E556C00636803EB821CDCF8B9
:103EC0002031C3F30343DCF8201121F47021CCF836
:103ED0002011616801EB8212D2F8241141F4407183
:103EE000C2F82411023BD9B2FFF7CEFF014630469B
:103EF000FFF710FB18B9103504EB4504A08070BD26
:103F0000636803EB821CDCF82031C3F30333DCF875
:103F1000201121F47041CCF82011616801EB82126C
:103F2000D2F8241141F0C001C2F82411DAE7636825
:103F300003EB821CDCF82031C3F30323DCF82011EF
:103F400021F47061CCF82011616801EB8212D2F883
:103F5000241141F03001C2F82411C3E7636803EB78
:103F6000821CDCF82031C3F30313DCF8201121F0AC
:103F7000F001CCF82011616801EB8212D2F8241113
:103F800041F00C01C2F82411ACE7636803EB821C1A
:103F9000DCF8203103F00F03DCF8201121F00F01D1
:103FA000CCF82011616801EB8212D2F8241141F0A3
:103FB0000301C2F8241195E70048A0E7002102049C
:103FC00038B5054630B36A7A314B03EB02139B7B5D
:103FD000A97A5A1802F01F01530901228A4020339E
:103FE0002C4941F82320BFF34F8FBFF36F8F6B68CD
:103FF000002B36D06A7A264B03EB02135B7BAA7A3E
:104000001344254A002142F82310FFF7D3FD18B1CD
:10401000002307E001BED6E72048FFF76DFDF7E774
:104020000133DBB2042BFBD9002401E00134E4B2FC
:10403000042C0BD804F1100305EB430399880029E5
:10404000F4D022462846FFF729FFEFE76A68A97AED
:1040500001238B4053602B7833B100236B601E2308
:104060002B722B7D2BB938BD05F10800FFF770F8D6
:10407000F3E7287B697B00F0030002F009F900B147
:1040800001BE05F10C00FEF7FEFE00232B75EAE7EA
:104090006898001000E100E0602B000898230008F9
:1040A000F0B583B004460E46037D53B10025154B91
:1040B00093E8030002AB03E9030025B1284603B0EF
:1040C000F0BD114DF3E704F10C070022114638460C
:1040D000FEF777FE08B10D4DF0E76A4631463846E7
:1040E000FEF7A3FE08B1094DE8E70022012138469A
:1040F000FEF767FE08B1054DE0E73846FEF778FEAB
:10410000A061DBE788980010031C0204011C020474
:10411000F8B504460E4600F10801437A27481D0110
:1041200000EB0313405960601879A37A1844C7B2B2
:10413000D2B104F10C03D2E9000183E80300184670
:10414000FEF756FEA061217B627B01F00301384639
:1041500002F020F838BB3246A17A606803F04EFCCA
:10416000054615B32846F8BD01231A4604F10C0094
:1041700000F086FD054610B1002DF2D1EBE70123DA
:1041800023750F492046FFF78BFF05460028F3D122
:10419000217B627B01F00301384601F0FBFF002820
:1041A000EAD0084DDDE7074DDBE72046FFF7D0FDFD
:1041B0006268A17A01238B409360D3E7689800106E
:1041C00040420F00011C020470B51446064620B19F
:1041D000FF2904D00F4D284670BD01BEF8E73422F8
:1041E0000021304604F024F831461E2301F8083F30
:1041F0001A20FFF7A7F8054628B1002DEBD030466E
:10420000FFF7DEFEE7E7224603493046FFF780FF6F
:104210000546F2E7001C02049098001010B5044611
:1042200068B1FFF78FFD60B96168A27A012303FAD4
:1042300002F28A606268A17A8B40936110BD01BE70
:10424000EFE70148FAE700BF03190204034630B163
:104250005A68997A01238B4053600020704701BE51
:10426000F6E7024640B15368917A126B03EB811373
:10427000C3F808210020704701BEF4E770B594B080
:1042800004460D46CB6803634C22204901A803F085
:10429000C1FF6B680193AB6806932B7883F0010331
:1042A0000393AB7853B1002305936B78012B07D0B0
:1042B000022B07D043B301BE002304E00223F3E73F
:1042C000012300E0032304936068A17A00EB8113CB
:1042D000D3F8386101AA03F023FC01AAA17A60682F
:1042E00003F08CFB05466268A17A01238B40936042
:1042F0006368A27A03EB8213C3F838612046FFF7A4
:10430000B0FF284614B070BD0023DCE79098001081
:10431000012803D0022803D10320704702207047F0
:10432000002070470138032809D8DFE800F0020BAD
:10433000040602207047062070470820704701BE1F
:104340000220704704207047814206D9091A64236D
:1043500003FB01F1B1FBF0F07047411A642303FB4A
:1043600001F1B1FBF0F070472DE9F04F87B0044642
:104370000F4690461E469DF840A01E230371002361
:104380004373FF23C371037243728372FEF74DFBC5
:10439000834613225E493846FFF7EEF9054613229D
:1043A0005C494046FFF7E8F90540FF2E05D1BAF118
:1043B000FF0F09D17DB1002314E012225649304687
:1043C000FFF7DAF90540F2E7122254495046FFF7A9
:1043D000D3F90540EEE75846FEF72BFB504D41E080
:1043E0000133DBB225FA03F212F0010FF8D01722E5
:1043F0008DF814208DF8153000238DF8163005AB9C
:10440000132243493846FFF775F9814605AB13225D
:1044100040494046FFF76EF90546039005AB12226E
:104420003D493046FFF766F9019005AB12223B4942
:104430005046FFF75FF90290B9F1000F09D045B17E
:10444000FF2E01D0019B23B1BAF1FF0F02D0029BD6
:1044500003B901BE05A8FEF737FE05465846FEF72C
:10446000E8FA1DB1284607B0BDE8F08F059BA38090
:104470001B0CA3710621484600F03DFB054678B3AE
:1044800055B9019B43B10821184600F034FB05469D
:1044900010B90123E37266725DB9029B4BB106212C
:1044A000184600F028FB054618B90123237384F849
:1044B0000AA055B9119BF3B10023637304F11003F3
:1044C000119A92E8030083E80300002DCAD1217CF1
:1044D000627C01F00301607901F05CFE0546C1E7F2
:1044E00027720821039800F006FB05460028C7D173
:1044F00084F80780C4E701231A46211D04F1100047
:1045000000F0BEFB0546B0FA80F35B096373DCE79D
:104510009490001048900010B88F00100090001088
:10452000001E020470B582B0044642791C4B53F859
:104530002200214641F8540B04F1180201F032FA2E
:10454000054610B1284602B070BD0023C4F89C3067
:10455000C4F8A030C4F894306379124E36F91330A1
:10456000ADF80030072301930F49684602F0D4FDEF
:10457000637936F91330002B07DB03F01F015B0969
:1045800001228A40094941F82320094A21466079DD
:10459000FFF72AF92268136843F000431360D1E75C
:1045A000FC97001030980010FD46001000E100E07C
:1045B000B54500102DE9F8430446037AFF2B0CD0D3
:1045C000D908772B05D84C480068866906EBC116D8
:1045D00004E0494909688E6900E00026A17AFF29B4
:1045E0000ED0207BD0B1C808772905D8424D2D6860
:1045F000AF6907EBC01704E03F480068876900E037
:10460000002703F0070501F00708013A072A65D8DB
:10461000DFE802F0064F64686464644F0027F0E747
:10462000A14659F8180B494601F012FC10F0010F91
:1046300001D0002054E04946206801F007FC10F04A
:10464000010F51D12168D1F80832C3F30803D1F822
:104650000822C2F3C032D34248D1D1F80833C3F3A1
:104660000803002B44D176B12946304600F08AFC7D
:1046700084F898002946304600F0B2FC0022294612
:10468000304600F00DFC77B14146384600F07AFC28
:1046900084F899004146384600F0A2FC00224146C9
:1046A000384600F0FDFB4946206801F02BFB012055
:1046B00016E02268136843F0004313602EB194F8AB
:1046C00098202946304600F0EBFB9FB194F89920E2
:1046D0004146384600F0E4FB012001E001BE002025
:1046E000BDE8F8830120FBE70020F9E70020F7E7A9
:1046F0000020F5E70120F3E7E42B000870B5FEF792
:10470000EBFF0446014651F8180BD0F88C5FD0F847
:10471000CC6F01F09FFB15F0200F09D023682022F9
:10472000C3F8802FD3F8803FE36C0BB11046984755
:1047300015F0400F09D023684022C3F8802FD3F82A
:10474000803FE36C0BB12020984715F0010F04D097
:10475000E36C13B14FF48070984715F4007F13D0C9
:1047600023684FF40072C3F8802FD3F8803F22688B
:10477000D2F8883F43F4007123F4EE6323F003037F
:1047800003B101BEC2F8881F16F0400F09D023689C
:104790004022C3F8C02FD3F8C03FE36C0BB1102008
:1047A000984716F0010F04D0E36C13B14FF400707A
:1047B000984770BD38B50C46154602F031FC05FB34
:1047C00004F4B0FBF4F038BD2DE9F84380460E4602
:1047D0000824FF27A14601E00134E4B2102C15D8CB
:1047E00006FB04F502F01CFC00EB55012246B1FB70
:1047F000F5F14046FFF7DEFF01463046FFF7A4FD26
:10480000C0B28742E8D90746A146E5E74846BDE879
:10481000F883000010B5044688B1206840B104F167
:10482000180101F06FFA206801F048FA00232360B4
:1048300023791E2B05D194F8A43023B310BD01BEFB
:10484000EBE762791B4B33F91230002B0CDB03F0E2
:104850001F015B0901228A402033174941F82320B8
:10486000BFF34F8FBFF36F8F002211466079FEF7C1
:10487000BBFF94F8A43013B11E232371DBE7201D86
:10488000FEF766FCF8E7E01D00F02AF904F10800E5
:1048900000F026F904F10A0000F022F904F1090001
:1048A00000F01EF9637B002BC8D004F11000FEF766
:1048B000EAFAC3E73098001000E100E0437B0BB94F
:1048C000334870472DE9F04704460E4690460546AA
:1048D000002155F8100B01F015FA00221146284668
:1048E000FEF76FFA30B12268136843F0004313609B
:1048F000BDE8F08704F1040931464846FFF764FF3C
:104900000746A06500FB06F602F08AFB00EB5600A6
:10491000B0FBF6F631462846FEF79EFA824640BBCB
:104920003A4631464846FFF745FFB8F1000F01D03F
:10493000C8F80000002201212846FEF742FA94F848
:10494000703013B34FF48033E26D082A01D84FF46E
:10495000006A43EA0A03013F07F00F071F43236879
:1049600047F000771F602268136843F0004313602C
:10497000BEE7002201212846FEF723FA22681368C9
:1049800043F0004313605046B2E75346DCE700BFF4
:10499000061E0204F8B506460F461546FEF71EFF32
:1049A000A8B93368D3F840332C4602E03368D3F813
:1049B0004033B3F1FF3F07D1002DF7D04CB10120B8
:1049C00002F0DEFB013CF1E73B700020F8BD02483D
:1049D000FCE70248FAE700BF03190204021E0204C2
:1049E00038B504460D46FEF7F9FE28B1044806E046
:1049F0002946206800F0C7FE0028F9D0002038BD05
:104A00000319020408B5034630B139B153F8180B45
:104A100001F084F9002008BD01BEF6E701BEF5E70C
:104A20002DE9F04182B00C46164698460A9F05468D
:104A3000002844D0A8220021284603F0F9FB099B56
:104A400001939DF820300093434632462146284684
:104A5000FFF78AFC044618BB05F1540C1F4C0FCC21
:104A6000ACE80F000FCCACE80F000FCCACE80F00A7
:104A700094E80F008CE80F00EB7A85F874305FB192
:104A80003B68EB653879FFF74DFC85F86100387AB3
:104A9000FFF73EFC85F862002846FFF743FD044619
:104AA00044B92FB1F96819B13A692846FFF7AAFF4E
:104AB0006B7B33B96CB9204602B0BDE8F08101BE12
:104AC000B8E700224FF4E1312846FFF7F7FE04462D
:104AD000F0E72846FFF79EFEEDE700BFDC980010E8
:104AE00010B504460078FF2800D110BD00F037F85B
:104AF000FF232370F9E770B584B004460D46837830
:104B00000B228DF80020DA088DF8012003F007034E
:104B10008DF80230009BADF80C301B0C8DF80E3078
:104B2000039BADF808301B0C8DF80A30029BADF8E2
:104B300004301B0C8DF8063001A8FEF7C5FA0646B6
:104B400010B1304604B070BD29462046FEF7F0FC97
:104B500006460028F5D001A8FEF7FAFAF1E710B5ED
:104B600084B00446FEF714FD00B101BE0B238DF89E
:104B70000030E3088DF8013004F007048DF802409E
:104B8000009BADF80C301B0C8DF80E30039BADF87C
:104B900008301B0C8DF80A30029BADF804301B0C5A
:104BA0008DF8063001A8FEF7D3FA04B010BD431EFD
:104BB000072B05D8DFE803F0060604060404040604
:104BC00001BE01207047431E072B05D8DFE803F024
:104BD000060604060404040601BE01207047000016
:104BE000012807D002280DD010B101BE0020704767
:104BF000881A7047A1EB020C114A02FB0CFC9CFBCB
:104C0000F1F0704738B50023B1EB020C63EB0304FD
:104C10001CEB0C0044EB040210EB0C0044EB020212
:104C20004FEA421E4EEAD06E4501401942EB0E0E8D
:104C300010EB0C000A4644EB0E0103F0E3F838BD1C
:104C400040420F00122817D8DFE800F00A180C0EB7
:104C50001616161616161616161216101616140016
:104C600008207047042070470120704702207047D9
:104C700006207047062070470120704710207047BB
:104C80002DE9F04383B0044616461F460B4691B10A
:104C900019780539182943D8DFE801F03A42424231
:104CA0004242420F424242424242420F1C42422A88
:104CB00042424242230001BEEAE7274B93E8030049
:104CC00002AB03E9030069462046FEF743F803B050
:104CD000BDE8F083214B93E8030002AB03E9030036
:104CE000F1E71F4B93E8030002AB03E90300EAE797
:104CF0005B7833B91B4B93E8030002AB03E9030075
:104D0000E1E7164B93E8030002AB03E90300DAE79F
:104D100001BE1548DBE74FF001090EE001BE0EE0D1
:104D20000025A9461148032DD1D8114B13F8058051
:104D30004645F0D0B9F1000F0CD0002CEED0FDF7B5
:104D4000D9FF024641462046FDF7D8FF0028BED0D5
:104D5000002FBCD00135E6E7F0960010F896001061
:104D6000009700100897001002020204020D0204CE
:104D70001C990010014B1860704700BFE42B00081D
:104D8000B0F1204F3CD018D880283BD007D9B0F5DF
:104D9000807F3FD0244B984209D024487047102888
:104DA00032D0402801D12248704700282ED17047C8
:104DB0004FF4A40070471D4870471E4B98422BD0FB
:104DC0002DD31D4B98422CD8B0F1704F12D900F161
:104DD000805001380428EED801A353F820F000BF1A
:104DE000B14D0010B74D0010114E0010F94D0010DC
:104DF000FD4D00100D48704710487047104870472F
:104E0000002070470F4870470F48704707487047A9
:104E10000E487047044870474FF4A000704703489D
:104E200070470248C3E700BF06005200FF0052006F
:104E300002005000090000A0050000F0020052002E
:104E40000300520005005200010050000100520012
:104E500010B5104B1B6893F83330012B00D801BEFE
:104E60000C4B1C68236AB4F8BA201344D4F8BC2055
:104E7000D358002B0BDB084B1868FFF781FF6368E2
:104E800001229A6063689B68002BFBD110BD034828
:104E9000FCE700BFE42B0008E82B000802005000EC
:104EA00010B5072900D901BE32F01F0300D001BEA2
:104EB000164B1B689C69001BC0095B694FEA001C0C
:104EC00003EB0010032910D853F80C00C9004FF071
:104ED0001F0E0EFA01FE20EA0E0002F01F0202FA77
:104EE00001F1014343F80C1010BD04394368C900B7
:104EF0004FF01F0C0CFA01FC23EA0C0302F01F0216
:104F000002FA01F119434160EEE700BFE42B00080B
:104F1000F8B507460D4614461E469DF81820072989
:104F200000D901BE34F00F0303D1012C01D0092CAC
:104F300000D101BE012E00D901BE32F01F0300D006
:104F400001BE29463846FFF7ABFF3B680122AA4065
:104F500023EA020306F00106AE401E433E60084B02
:104F60001B6893F88110CB59AD000F22AA4023EAA9
:104F7000020304F00F04AC401C43CC51F8BD00BF49
:104F8000E42B0008072900D901BE0D4B1B689A6964
:104F9000801AC0095B69020103EB0010032906D8DF
:104FA0009858C90020FA01F101F01F007047043938
:104FB0004068C90020FA01F101F01F00704700BFEE
:104FC000E42B0008072900D901BE012A00D901BE3F
:104FD000012303FA01F10AB941607047816070470B
:104FE000072900D901BE012303FA01F1816070474E
:104FF000072900D901BE012303FA01F1C1607047FE
:1050000000B5072900D901BE32F00F0303D1012AF0
:1050100001D0092A00D101BE89000A4B1B6893F810
:1050200081E05EF800304FF00F0C0CFA01FC23EA2F
:105030000C0302F00F028A401A434EF800205DF87C
:1050400004FB00BFE42B000800B5072900D901BE0E
:10505000012A00D901BE0A4B1B6893F882E05EF872
:1050600000304FF0010C0CFA01FC23EA0C0302F0B3
:1050700001028A401A434EF800205DF804FB00BF8D
:10508000E42B0008082900D901BE012A00D901BE7D
:1050900083694FF0010C0CFA01FC23EA0C0302F0C7
:1050A00001028A401A4382617047000000B5082956
:1050B00000D901BE032A00D901BE4900094B1B6873
:1050C00093F880E05EF800304FF0030C0CFA01FC1E
:1050D00023EA0C0302F003028A401A434EF8002030
:1050E0005DF804FBE42B0008002800F0A280F8B56E
:1050F0000D4614460646002A00F09D80072900D977
:1051000001BE2368012B00D901BE636833F00F0292
:1051100003D1012B01D0092B00D101BE237A33F03A
:105120001F0300D001BEE368032B00D901BE236931
:10513000012B00D901BE6369012B00D901BE236A8E
:10514000012B00D901BE636A012B00D901BEA36AFD
:10515000012B00D901BEE36A032B00D901BE236BEA
:10516000072B00D901BEE369032B00D901BEA36957
:10517000012B00D901BE0121A9406A0002F1100CE7
:10518000032303FA0CF319432C4F3B6893F8830075
:10519000835923EA0101A36903F00103AB400B43E8
:1051A000E26902F0030202FA0CF2134383516268CF
:1051B00029463046FFF724FF227A29463046FFF77A
:1051C0006FFEE26829463046FFF770FF22692946E4
:1051D0003046FFF757FF626929463046FFF734FF34
:1051E0003B6893F88410705820F0FF00236A03F0A6
:1051F0000103626A520002F002021343A26A9200A3
:1052000002F004021343E26AD20002F018021343D0
:10521000226B5201D2B21343AA0002F47E72934071
:1052200003437350226829463046FFF7CBFE002027
:10523000F8BD034870470248FAE700BFE42B0008B6
:1052400001005A00084B1B68D3F8BC301B58002BD8
:1052500007DA0B0C1B0403B101BE89B241600020C8
:1052600070470248704700BFE42B000801008A0025
:105270000368002B08DAC2600B0C1B0403B101BEEB
:1052800089B28160002070470048704701008A00A1
:105290000A4651B1074B1B68D3F8BC301B58002B92
:1052A00005DAC36813600020704701BEF2E70248C8
:1052B000704700BFE42B000801008A00034B1B6805
:1052C00003B17047014B1860FBE700BF0C2C0008CE
:1052D000F0B4049D234C2468002C40D0214C276856
:1052E0002C2400FB04F43819DEB23E51C3F307242A
:1052F00044601B0C83601C4B1B6893F833309E4248
:1053000000D301BE184B1B681C6AB3F8BA7007FBC8
:1053100006440461446893F834309C4200D301BED3
:10532000114B1B681B6A803403EB44134361846890
:10533000260C360406B101BE260C360406B101BEA9
:105340001FFA84FC4CEA04449C60C26101620023A1
:10535000836115B1B5F900308381F0BC704701BE9F
:10536000BCE700BF0C2C0008E42B000830B58FB060
:10537000044600284AD0A369072B00D901BEE36A7E
:10538000002B45D0236B002B44D00DF11C0C04F1F5
:10539000140EBEE80F00ACE80F00DEF80030CCF8C9
:1053A00000300DF1080CA646BEE80F00ACE80F0077
:1053B000DEF80030CCF80030174B1B681B8F079AC3
:1053C0001344ADF83030089B0D930CAD00950B9B4A
:1053D000A26AE16A0A98FFF77BFF00210091069B11
:1053E0000A460598FFF774FF216B284601F094FEEA
:1053F000BDF93030002B07DB03F01F015B090122F0
:105400008A40064941F823200FB030BD01BEB2E703
:1054100001BEB7E701BEB8E7E42B000800E100E0F9
:1054200030B51546002A30D01D4A1268002A2ED009
:105430001B4A14684FF02C0C0CFB00420CFB014182
:1054400048684FF0010E0EFA00F04FEA004C506829
:105450000EFA00FE1469E4B18869E0B92468002CF2
:105460001BDA2C882C6044EA0C042C601469E5607B
:1054700001248C614B6212694FEA1E431B0403B185
:1054800001BE1FFA8EF3936030BD01BECCE701BEB2
:10549000CEE70448F8E70448F6E70348F4E700BF1E
:1054A0000C2C000804028A0007028A0070B582B042
:1054B00000230193044628B323692BB363692BB3FC
:1054C000236A2BB36369DD682A0C0BD02A0C120403
:1054D0001A601B6820691D4B1B68D3F8BC301B5831
:1054E000002B17DBADB24DB163691D601B68636AA9
:1054F0003BB39847002363620023A36163691B6881
:1055000002B070BD01BED7E701BED7E701BED7E745
:1055100001BED7E701A9FFF7BBFE60B90198036898
:105520001E0CDBB2E2699A4206D9226A52F8233095
:1055300013B1984700E0002631462069FFF782FE4C
:10554000D0E7A36A002BD7D09847D5E7E42B000813
:1055500008B5064B1B683BB1044B1B682C2202FBB1
:105560000030FFF7A3FF08BD01BEF5E70C2C0008D3
:105570001E4B1B6893F83330834233D970B50C4609
:10558000002931D00B6813F01F0F01D0184870BDEF
:10559000164B1B6893F83330984200D301BE134B6F
:1055A0001B681D6AB3F8BA3003FB0055114E356015
:1055B0002268D2080021606802F03AFE00212846E5
:1055C000FFF740FE224600213068FFF751FE08B188
:1055D0000948DCE700213068FFF734FE0028D6D008
:1055E0000548D4E7024870470148D0E7E42B00089B
:1055F00003018A00102C000801018A0010B50B4637
:1056000014461AB1E4B1ABB90E4810BD0029F9D166
:105610000D4A126892F83320904200D301BE0A4A24
:1056200011680A6AB1F8BA1001FB0020074A10603D
:105630001846EAE706490B604C60FFF799FFE4E77C
:105640000048E2E703018A00E42B0008102C000860
:10565000B82700082DE9F041194B1B68DD682B685D
:1056600083422BD90C46460900F01F00012303FAA0
:1056700000F8B9B10027124B18680368002B17DA3D
:105680006A6852F8263013EA080F0FD023EA08039D
:1056900042F8263000250021FFF7D4FD54B12846FA
:1056A000BDE8F081FDF7C1F90746E4E7054DF2E7F3
:1056B000054DF3E73846FDF7BCF9F0E7034DEEE79B
:1056C000102C0008020188000301880004018A00F0
:1056D0000B4B1B68DB681A6882420CD9410900F049
:1056E0001F00012202FA00F05B6853F821300342E8
:1056F00003D004487047044870470448704700BF0F
:10570000102C00080101880004018A0000018800B3
:10571000084B1B689B6CC34013F0010F00D101BE06
:10572000044B1B681B6910308002185800F00F00F2
:10573000704700BFE42B000810B4D0F8003313F01A
:10574000080305D000230DE0D0F84043CC540133CA
:105750009342F9D35DF8044B7047D0F8404321F8E9
:10576000134001339342F8D3F4E710B51446D0F850
:105770000833C3F308039A4200D31C462246FFF7BE
:10578000DBFF204610BD036813F4006F0AD08022AF
:10579000D0F80832C3F30803934205D0C0F8401292
:1057A000012070474022F3E70020704710B4D0F882
:1057B000003213F0080305D000230DE0CC5CC0F8E4
:1057C000404201339342F9D35DF8044B704731F8FE
:1057D0001340C0F8404201339342F8D3F4E710B5C8
:1057E0001446036813F4006F0DD08023D0F808220C
:1057F000C2F308029B1AA34200D81C462246FFF7B8
:10580000D5FF204610BD4023F0E70346026812F49E
:10581000006F07D0802040081B6D13F0FF0300D0FD
:10582000184670474020F6E72DE9F04105460C4642
:10583000036813F4006F12D08027D5F8006206F0D9
:105840000806A26A012A0CD8D5F80832C3F3080367
:105850009F4202D0A36A012B18D0BDE8F0814027F7
:10586000EBE7D4F82480E262013AB8F1000F00D0EF
:1058700002B901BE41462846FFF7B1FFA36A1B1AD1
:10588000A36206B1400040446062DDE70023A362EA
:105890003EBB636A1E78FDF7C8F8C5F840624FF456
:1058A0000073C5F8803FD5F8803FFDF7C2F8D5F802
:1058B000883F23F4007222F0010242F4007223F4C4
:1058C000EE6323F0030303B101BEC5F8882F2368FC
:1058D00043F002032360636B002BBED00120984786
:1058E000BBE7636A1E88D6E770B505460C46FFF72E
:1058F0008CFF0646A169E26901B102B901BE2846E2
:10590000FFF733FF236A03442362E3691B1AE36151
:105910004BBBA3681BB3E068B0421CD3013E2B68AD
:1059200013F4006F19D080239E4200D301BED5F836
:10593000043323F0FF03F6B21E43C5F804630123CA
:10594000C5F8C83F636823F001036360636B0BB164
:105950000420984770BD461EE1E74023E4E700239A
:10596000C5F8C83FEEE7A269D5F8001311F0080F9B
:1059700000D040001044A061B342EBD2013B2A6842
:1059800012F4006F0CD08022934200D301BED5F8F0
:10599000042322F0FF02DBB21343C5F80433D9E736
:1059A0004022F1E7002800F07F810346002900F043
:1059B0007D8110B40878022800D901BE487B0238E6
:1059C000C0B2062800D901BE887B20B1022802D0CF
:1059D000032800D001BE91F82100012800D901BEA2
:1059E00091F82800012800D901BE0878012806D9BD
:1059F000887F48B148680138062805D903E048681F
:105A00000838082800D901BE88680538042800D95C
:105A100001BE4869FF2800D901BE8869FF2800D966
:105A200001BE887C30B1087818B98868092800F070
:105A3000828001BE486B20F4366020F00D0000B17A
:105A400001BEC86B20F4EE6020F0030000B101BE7F
:105A50000878022874D0486800F1FF3C087F0028CD
:105A600074D04FF480308C68082C71D84FF40064E7
:105A700020430CF00F0C40EA0C0040F0007018605E
:105A80000C6B186810F4006F64D08020844200D33F
:105A900001BE8C6B186810F4006F5DD080208442CA
:105AA00000D301BE4C6A186810F4006F56D08020F5
:105AB000844200D301BE0878000600F040701864EC
:105AC000487F00284CD040208C7C002C4AD04FF4DA
:105AD000806420430C7C002C46D04FF4807420431B
:105AE0004C7C002C42D04FF400742043CC6A04F16B
:105AF000FF3C4FEA0C4C0CF4702C40EA0C0091F87F
:105B00000DC00CF1FF3C0CF0070C40EA0C0091F8C2
:105B10000EC04FEA0C1C0CF0300C40EA0C009864EC
:105B2000087B28B34FF48070CC7B1CBB0C78022C14
:105B300048D0002420E0887B00283FF47BAF78E742
:105B4000887F002887D14FF0000C87E700208AE784
:105B500000248DE7402099E74020A0E74020A7E7F8
:105B60000020B1E70024B4E70024B8E70024BCE734
:105B70000020D9E74FF4007420438C6804F1FF3C07
:105B80000CF00F0C40EA0C00C3F8000391F814C0AD
:105B90008869000400F47F004CEA0000C3F8100399
:105BA000CC6AD3F8000300F00F000330844201D325
:105BB000102C00D901BEC87F38B10878012863D005
:105BC000002403E04FF40074D6E70024487B01383A
:105BD00000F00700204391F80EC04FEA0C1C0CF0B7
:105BE000300C40EA0C005864087B00284FD04FF47A
:105BF00080748868013800F00F0020430C78012C75
:105C000047D000242043C3F8000291F83000C3F8C5
:105C1000040391F8200000283ED04FF0007091F866
:105C20002140012C3AD00024204391F82840012C37
:105C300037D00024204391F824402043186591F880
:105C40003800C3F80402486B20F4926020F0020090
:105C50000005000DC3F8C80FC86B20F08C0040058C
:105C6000400DC3F8880F1AB3002050601060906098
:105C7000D0601062D06250638B7F82F830300D4B61
:105C800093635DF8044B70474FF480749EE70024E3
:105C9000AFE74FF48034B5E70020C0E74FF08074E1
:105CA000C2E74FF48034C5E70348704702487047A5
:105CB0000020E6E7EFCDAB000160AA00104B0360C7
:105CC0004FF0407303640023836440F20712C0F86E
:105CD0000023C0F80433C0F810334364C0F8002236
:105CE000C0F804320365C0F8C83EC0F8883EC0F86A
:105CF000C83FC0F8883FC0F8083FC0F8483F704729
:105D00000F000003036823F00043036021B1002269
:105D10004A600A600A62CA6270470000F8B5054628
:105D20000E4614461F4653B1BA6B174B9A4200D029
:105D300001BE06B104B901BE06B114B9F8BD01BE79
:105D4000F2E72846FFF761FDBE60FC6000233B617F
:105D50007B61844214D3441E2B6813F4006F11D06E
:105D600080239C4200D301BED5F8043323F0FF0307
:105D7000E4B21C43C5F804430123C5F8C83FDDE77E
:105D8000013CE9E74023ECE7EFCDAB0008694B6944
:105D9000834202D84B69C01A7047CB684A699B1A84
:105DA000184470472DE9F04107460D46FFF72DFDD9
:105DB0008046D7F80863C6F308062C6931E0002452
:105DC00035E06B6B0BB1082098476B69A34231D16A
:105DD0000023C7F8C83FECB1013C2C61EC682946B0
:105DE0003846FFF7D3FF201A804511D900B101389A
:105DF0003B6813F4006F27D08023984200D301BE84
:105E0000D7F8043323F0FF03C0B21843C7F80403E4
:105E1000BDE8F081EC68013CDFE7AB6823F81420B3
:105E2000013E002ED9D00134EB68A342C7D06B6984
:105E3000A342C6D0D7F84023D7F8003313F0080F99
:105E4000EBD1AB681A55EBE74023D6E748687047BB
:105E50000868704738B504460D46D0F8003E13F088
:105E6000080F3FD0D0F8CC3F13F448730AD04A68EB
:105E70001A434A60C0F8C03FD0F8C03F4B6B0BB12B
:105E800010209847D4F8CC3F13F4006F09D06B680A
:105E900043F400636B604FF40063C4F8C03FD4F870
:105EA000C03FD4F8CC3F13F0010F0DD0EB69002BAD
:105EB00052D1AB681BB129462046FFF773FF01237F
:105EC000C4F8C03FD4F8C03FD4F8CC3F13F0040F5F
:105ED00008D06B6B0BB1402098470423C4F8C03F37
:105EE000D4F8C03FD4F8003E13F0040F33D0D4F8F8
:105EF0008C3F13F4A0630AD02A681A432A60C4F8BE
:105F0000803FD4F8803F6B6B0BB120209847D4F8CA
:105F10008C3F13F0010F24D1D4F88C3F13F4007F91
:105F20000BD00022C4F8882F2B6823F001032B60CC
:105F3000EA626B6B0BB102209847D4F88C3F13F0E8
:105F4000100F08D06B6B0BB1802098471023C4F85A
:105F5000803FD4F8803F38BD29462046FFF7C4FC77
:105F6000ADE729462046FFF75FFC0123C4F8803FD8
:105F7000D4F8803FD0E70000A0B9072931D8FF2A24
:105F800031D81C4B18688368B0F878C09C445CF822
:105F9000210020F47F40120292B202434CF82120EB
:105FA00000207047012801D0134870470F291CD8E2
:105FB000B2F5803F1BD20F4B18688368B0F87AC0E7
:105FC0009C445CF8210020F47F0020F47F40130201
:105FD00023F07F4323F0FF0303434CF821300020DC
:105FE00070470548704704487047034870470248A7
:105FF000704700BFE42B000801004A00012800D9C7
:1060000001BE68B9072900D901BE0C4B1A68936814
:10601000B2F87820134453F82100C0F307207047EA
:106020000F2900D901BE054B1A689368B2F87A208F
:10603000134453F82100C0F30F207047E42B0008ED
:1060400030B4022804D003282DD02E4830BC70472D
:1060500003294BD8B2F5803F4AD21F2B4AD82A4C8D
:106060002568A868B5F87CC084445CF8210020F459
:106070007F0020F47F40120222F07F4222F0FF02D4
:1060800010434CF8210022689068B2F87C2010443C
:1060900050F8212022F0F802DB00DBB2134340F875
:1060A00021300020D2E739BBB2F1807F26D21F2BEE
:1060B00026D8154C2568A868B5F87EC084445CF8DD
:1060C0002100C0B240EA02224CF8212022689068E8
:1060D000B2F87E20104450F8212022F0F802DB00B4
:1060E000DBB2134340F821300846AFE70548ADE77F
:1060F0000448ABE70348A9E70248A7E70148A5E73A
:106100000048A3E701004A00E42B000830B4A0F1E6
:10611000020C5FFA8CFCBCF1010F1AD901BE0228F7
:106120001CD001B101BE1A4C2568A868B5F87E5094
:10613000284450F82100000A106020688268B0F8F6
:106140007E00024452F82120C2F3C4021A6030BC1F
:106150007047002AE2D0002BE1D1DFE7032900D904
:1061600001BE0B4C2568A868B5F87C50284450F84F
:106170002100C0F30F20106020688268B0F87C0016
:10618000024452F82120C2F3C4021A60DFE700BFC4
:10619000E42B00081B4B1B6893F842C084452BD9A5
:1061A00003292BD809B9072A0ED9012905D00229BC
:1061B00006D0032907D0144870470F2A04D9F6E700
:1061C000032A01D9F5E7DAB900B593F875E001FAC9
:1061D0000EF14FF0030C0CFA0EFC01EA0C0193F8DF
:1061E00074C00CEA02029B68114300F5407043F84A
:1061F000201000205DF804FB0348704702487047F8
:1062000001487047E42B000801004A00032836D8F3
:1062100008B907290ED9012805D0022806D003287D
:1062200007D0194870470F2904D9F6E7032901D987
:10623000F5E731BB10B5154B1A6892F877304FF07F
:10624000030E0EFA03F392F874C092F876400CFA3B
:1062500004F4234392F87540A0400EFA04FE00EACD
:106260000E0018430CEA01019368084340F0004017
:10627000C3F800049368D3F80034002010BD02482E
:1062800070470148704700BF01004A00E42B000836
:10629000032826D808B907290ED9012805D00228D5
:1062A00006D0032807D0114870470F2904D9F6E714
:1062B000032901D9F5E7B1B90D4B1A6892F875C0F9
:1062C00000FA0CF0032303FA0CF3184092F8743030
:1062D00019409368084340F08040C3F80004002050
:1062E0007047024870470148704700BF01004A00EC
:1062F000E42B0008034608B9072906D9012B0AD068
:10630000022B0BD0032B0CD001BE032B38D8DFE8B7
:1063100003F00B16212C0F29F7D9F1E70329F4D943
:10632000F0E70029F1D0EFE7164B1A689368B2F84E
:106330007820134453F8210000F001007047114BFE
:106340001A689368B2F87A20134453F8210000F0D9
:10635000010070470B4B1A689368B2F87C20134415
:1063600053F8210000F001007047064B1A6893684B
:10637000B2F87E20134453F8210000F0010070476A
:1063800000207047E42B0008054B1A681168D2F80A
:1063900088208B5823F47F4343EA00238B507047B7
:1063A000E42B0008044B1B681A68D3F88830D058D7
:1063B000C0F30720704700BFE42B0008012800D974
:1063C00001BE054A136823F44073000200F44070D4
:1063D00018431060704700BF00002740032800D911
:1063E00001BE054AD2F8003523F0030300F0030094
:1063F0001843C2F80005704700002640054B1A6894
:106400001168D2F888208B5823F07F4343EA006359
:106410008B507047E42B0008034B1B681A68D3F8B5
:106420008830D058000E7047E42B0008054B1A68DE
:106430001168D2F88C208B5823F47F4343EA002361
:106440008B507047E42B0008044B1B681A68D3F884
:106450008C30D058C0F30720704700BFE42B0008F1
:10646000084B1B6893F84030834209D9064AE03054
:1064700052F8203043F0004342F8203000207047AB
:1064800002487047E42B00080000264001004A0043
:10649000064B1B6893F84030834205D9E030044B2B
:1064A00053F82000C00F704700207047E42B00080D
:1064B00000002640034678B1094A126892F840204D
:1064C00082420BD90749E03351F8232022F00042E1
:1064D00041F8232000207047034870470248704766
:1064E000E42B00080000264001004A000C4B1B680A
